{
  "contractName": "EthnMagic",
  "abi": [
    {
      "inputs": [
        {
          "internalType": "string",
          "name": "_name",
          "type": "string"
        },
        {
          "internalType": "string",
          "name": "_symbol",
          "type": "string"
        },
        {
          "internalType": "uint256",
          "name": "_royalityFee",
          "type": "uint256"
        },
        {
          "internalType": "address",
          "name": "_artist",
          "type": "address"
        }
      ],
      "stateMutability": "nonpayable",
      "type": "constructor"
    },
    {
      "anonymous": false,
      "inputs": [
        {
          "indexed": true,
          "internalType": "address",
          "name": "owner",
          "type": "address"
        },
        {
          "indexed": true,
          "internalType": "address",
          "name": "approved",
          "type": "address"
        },
        {
          "indexed": true,
          "internalType": "uint256",
          "name": "tokenId",
          "type": "uint256"
        }
      ],
      "name": "Approval",
      "type": "event"
    },
    {
      "anonymous": false,
      "inputs": [
        {
          "indexed": true,
          "internalType": "address",
          "name": "owner",
          "type": "address"
        },
        {
          "indexed": true,
          "internalType": "address",
          "name": "operator",
          "type": "address"
        },
        {
          "indexed": false,
          "internalType": "bool",
          "name": "approved",
          "type": "bool"
        }
      ],
      "name": "ApprovalForAll",
      "type": "event"
    },
    {
      "anonymous": false,
      "inputs": [
        {
          "indexed": true,
          "internalType": "address",
          "name": "previousOwner",
          "type": "address"
        },
        {
          "indexed": true,
          "internalType": "address",
          "name": "newOwner",
          "type": "address"
        }
      ],
      "name": "OwnershipTransferred",
      "type": "event"
    },
    {
      "anonymous": false,
      "inputs": [
        {
          "indexed": false,
          "internalType": "uint256",
          "name": "id",
          "type": "uint256"
        },
        {
          "indexed": true,
          "internalType": "address",
          "name": "owner",
          "type": "address"
        },
        {
          "indexed": false,
          "internalType": "uint256",
          "name": "price",
          "type": "uint256"
        },
        {
          "indexed": false,
          "internalType": "string",
          "name": "metadataURI",
          "type": "string"
        },
        {
          "indexed": false,
          "internalType": "uint256",
          "name": "timestamp",
          "type": "uint256"
        }
      ],
      "name": "Sale",
      "type": "event"
    },
    {
      "anonymous": false,
      "inputs": [
        {
          "indexed": true,
          "internalType": "address",
          "name": "from",
          "type": "address"
        },
        {
          "indexed": true,
          "internalType": "address",
          "name": "to",
          "type": "address"
        },
        {
          "indexed": true,
          "internalType": "uint256",
          "name": "tokenId",
          "type": "uint256"
        }
      ],
      "name": "Transfer",
      "type": "event"
    },
    {
      "inputs": [
        {
          "internalType": "address",
          "name": "to",
          "type": "address"
        },
        {
          "internalType": "uint256",
          "name": "tokenId",
          "type": "uint256"
        }
      ],
      "name": "approve",
      "outputs": [],
      "stateMutability": "nonpayable",
      "type": "function"
    },
    {
      "inputs": [],
      "name": "artist",
      "outputs": [
        {
          "internalType": "address",
          "name": "",
          "type": "address"
        }
      ],
      "stateMutability": "view",
      "type": "function",
      "constant": true
    },
    {
      "inputs": [
        {
          "internalType": "address",
          "name": "owner",
          "type": "address"
        }
      ],
      "name": "balanceOf",
      "outputs": [
        {
          "internalType": "uint256",
          "name": "",
          "type": "uint256"
        }
      ],
      "stateMutability": "view",
      "type": "function",
      "constant": true
    },
    {
      "inputs": [
        {
          "internalType": "uint256",
          "name": "tokenId",
          "type": "uint256"
        }
      ],
      "name": "getApproved",
      "outputs": [
        {
          "internalType": "address",
          "name": "",
          "type": "address"
        }
      ],
      "stateMutability": "view",
      "type": "function",
      "constant": true
    },
    {
      "inputs": [
        {
          "internalType": "uint256",
          "name": "",
          "type": "uint256"
        }
      ],
      "name": "holderOf",
      "outputs": [
        {
          "internalType": "address",
          "name": "",
          "type": "address"
        }
      ],
      "stateMutability": "view",
      "type": "function",
      "constant": true
    },
    {
      "inputs": [
        {
          "internalType": "address",
          "name": "owner",
          "type": "address"
        },
        {
          "internalType": "address",
          "name": "operator",
          "type": "address"
        }
      ],
      "name": "isApprovedForAll",
      "outputs": [
        {
          "internalType": "bool",
          "name": "",
          "type": "bool"
        }
      ],
      "stateMutability": "view",
      "type": "function",
      "constant": true
    },
    {
      "inputs": [],
      "name": "name",
      "outputs": [
        {
          "internalType": "string",
          "name": "",
          "type": "string"
        }
      ],
      "stateMutability": "view",
      "type": "function",
      "constant": true
    },
    {
      "inputs": [],
      "name": "owner",
      "outputs": [
        {
          "internalType": "address",
          "name": "",
          "type": "address"
        }
      ],
      "stateMutability": "view",
      "type": "function",
      "constant": true
    },
    {
      "inputs": [
        {
          "internalType": "uint256",
          "name": "tokenId",
          "type": "uint256"
        }
      ],
      "name": "ownerOf",
      "outputs": [
        {
          "internalType": "address",
          "name": "",
          "type": "address"
        }
      ],
      "stateMutability": "view",
      "type": "function",
      "constant": true
    },
    {
      "inputs": [],
      "name": "price",
      "outputs": [
        {
          "internalType": "uint256",
          "name": "",
          "type": "uint256"
        }
      ],
      "stateMutability": "view",
      "type": "function",
      "constant": true
    },
    {
      "inputs": [],
      "name": "renounceOwnership",
      "outputs": [],
      "stateMutability": "nonpayable",
      "type": "function"
    },
    {
      "inputs": [],
      "name": "royalityFee",
      "outputs": [
        {
          "internalType": "uint256",
          "name": "",
          "type": "uint256"
        }
      ],
      "stateMutability": "view",
      "type": "function",
      "constant": true
    },
    {
      "inputs": [
        {
          "internalType": "address",
          "name": "from",
          "type": "address"
        },
        {
          "internalType": "address",
          "name": "to",
          "type": "address"
        },
        {
          "internalType": "uint256",
          "name": "tokenId",
          "type": "uint256"
        }
      ],
      "name": "safeTransferFrom",
      "outputs": [],
      "stateMutability": "payable",
      "type": "function",
      "payable": true
    },
    {
      "inputs": [
        {
          "internalType": "address",
          "name": "from",
          "type": "address"
        },
        {
          "internalType": "address",
          "name": "to",
          "type": "address"
        },
        {
          "internalType": "uint256",
          "name": "tokenId",
          "type": "uint256"
        },
        {
          "internalType": "bytes",
          "name": "_data",
          "type": "bytes"
        }
      ],
      "name": "safeTransferFrom",
      "outputs": [],
      "stateMutability": "payable",
      "type": "function",
      "payable": true
    },
    {
      "inputs": [
        {
          "internalType": "address",
          "name": "operator",
          "type": "address"
        },
        {
          "internalType": "bool",
          "name": "approved",
          "type": "bool"
        }
      ],
      "name": "setApprovalForAll",
      "outputs": [],
      "stateMutability": "nonpayable",
      "type": "function"
    },
    {
      "inputs": [],
      "name": "supply",
      "outputs": [
        {
          "internalType": "uint256",
          "name": "",
          "type": "uint256"
        }
      ],
      "stateMutability": "view",
      "type": "function",
      "constant": true
    },
    {
      "inputs": [
        {
          "internalType": "bytes4",
          "name": "interfaceId",
          "type": "bytes4"
        }
      ],
      "name": "supportsInterface",
      "outputs": [
        {
          "internalType": "bool",
          "name": "",
          "type": "bool"
        }
      ],
      "stateMutability": "view",
      "type": "function",
      "constant": true
    },
    {
      "inputs": [],
      "name": "symbol",
      "outputs": [
        {
          "internalType": "string",
          "name": "",
          "type": "string"
        }
      ],
      "stateMutability": "view",
      "type": "function",
      "constant": true
    },
    {
      "inputs": [
        {
          "internalType": "uint256",
          "name": "index",
          "type": "uint256"
        }
      ],
      "name": "tokenByIndex",
      "outputs": [
        {
          "internalType": "uint256",
          "name": "",
          "type": "uint256"
        }
      ],
      "stateMutability": "view",
      "type": "function",
      "constant": true
    },
    {
      "inputs": [
        {
          "internalType": "address",
          "name": "owner",
          "type": "address"
        },
        {
          "internalType": "uint256",
          "name": "index",
          "type": "uint256"
        }
      ],
      "name": "tokenOfOwnerByIndex",
      "outputs": [
        {
          "internalType": "uint256",
          "name": "",
          "type": "uint256"
        }
      ],
      "stateMutability": "view",
      "type": "function",
      "constant": true
    },
    {
      "inputs": [
        {
          "internalType": "uint256",
          "name": "tokenId",
          "type": "uint256"
        }
      ],
      "name": "tokenURI",
      "outputs": [
        {
          "internalType": "string",
          "name": "",
          "type": "string"
        }
      ],
      "stateMutability": "view",
      "type": "function",
      "constant": true
    },
    {
      "inputs": [],
      "name": "totalSupply",
      "outputs": [
        {
          "internalType": "uint256",
          "name": "",
          "type": "uint256"
        }
      ],
      "stateMutability": "view",
      "type": "function",
      "constant": true
    },
    {
      "inputs": [],
      "name": "totalTx",
      "outputs": [
        {
          "internalType": "uint256",
          "name": "",
          "type": "uint256"
        }
      ],
      "stateMutability": "view",
      "type": "function",
      "constant": true
    },
    {
      "inputs": [
        {
          "internalType": "address",
          "name": "from",
          "type": "address"
        },
        {
          "internalType": "address",
          "name": "to",
          "type": "address"
        },
        {
          "internalType": "uint256",
          "name": "tokenId",
          "type": "uint256"
        }
      ],
      "name": "transferFrom",
      "outputs": [],
      "stateMutability": "payable",
      "type": "function",
      "payable": true
    },
    {
      "inputs": [
        {
          "internalType": "address",
          "name": "newOwner",
          "type": "address"
        }
      ],
      "name": "transferOwnership",
      "outputs": [],
      "stateMutability": "nonpayable",
      "type": "function"
    },
    {
      "inputs": [
        {
          "internalType": "string",
          "name": "title",
          "type": "string"
        },
        {
          "internalType": "string",
          "name": "description",
          "type": "string"
        },
        {
          "internalType": "string",
          "name": "metadataURI",
          "type": "string"
        },
        {
          "internalType": "uint256",
          "name": "price",
          "type": "uint256"
        }
      ],
      "name": "payToMint",
      "outputs": [],
      "stateMutability": "payable",
      "type": "function",
      "payable": true
    },
    {
      "inputs": [
        {
          "internalType": "uint256",
          "name": "id",
          "type": "uint256"
        }
      ],
      "name": "payToBuy",
      "outputs": [],
      "stateMutability": "payable",
      "type": "function",
      "payable": true
    },
    {
      "inputs": [
        {
          "internalType": "uint256",
          "name": "id",
          "type": "uint256"
        },
        {
          "internalType": "uint256",
          "name": "newPrice",
          "type": "uint256"
        }
      ],
      "name": "changePrice",
      "outputs": [
        {
          "internalType": "bool",
          "name": "",
          "type": "bool"
        }
      ],
      "stateMutability": "nonpayable",
      "type": "function"
    },
    {
      "inputs": [],
      "name": "getAllNFTs",
      "outputs": [
        {
          "components": [
            {
              "internalType": "uint256",
              "name": "id",
              "type": "uint256"
            },
            {
              "internalType": "address",
              "name": "owner",
              "type": "address"
            },
            {
              "internalType": "uint256",
              "name": "price",
              "type": "uint256"
            },
            {
              "internalType": "string",
              "name": "title",
              "type": "string"
            },
            {
              "internalType": "string",
              "name": "description",
              "type": "string"
            },
            {
              "internalType": "string",
              "name": "metadataURI",
              "type": "string"
            },
            {
              "internalType": "uint256",
              "name": "timestamp",
              "type": "uint256"
            }
          ],
          "internalType": "struct EthnMagic.TransactionStruct[]",
          "name": "",
          "type": "tuple[]"
        }
      ],
      "stateMutability": "view",
      "type": "function",
      "constant": true
    },
    {
      "inputs": [
        {
          "internalType": "uint256",
          "name": "id",
          "type": "uint256"
        }
      ],
      "name": "getNFT",
      "outputs": [
        {
          "components": [
            {
              "internalType": "uint256",
              "name": "id",
              "type": "uint256"
            },
            {
              "internalType": "address",
              "name": "owner",
              "type": "address"
            },
            {
              "internalType": "uint256",
              "name": "price",
              "type": "uint256"
            },
            {
              "internalType": "string",
              "name": "title",
              "type": "string"
            },
            {
              "internalType": "string",
              "name": "description",
              "type": "string"
            },
            {
              "internalType": "string",
              "name": "metadataURI",
              "type": "string"
            },
            {
              "internalType": "uint256",
              "name": "timestamp",
              "type": "uint256"
            }
          ],
          "internalType": "struct EthnMagic.TransactionStruct",
          "name": "",
          "type": "tuple"
        }
      ],
      "stateMutability": "view",
      "type": "function",
      "constant": true
    },
    {
      "inputs": [],
      "name": "getAllTransactions",
      "outputs": [
        {
          "components": [
            {
              "internalType": "uint256",
              "name": "id",
              "type": "uint256"
            },
            {
              "internalType": "address",
              "name": "owner",
              "type": "address"
            },
            {
              "internalType": "uint256",
              "name": "price",
              "type": "uint256"
            },
            {
              "internalType": "string",
              "name": "title",
              "type": "string"
            },
            {
              "internalType": "string",
              "name": "description",
              "type": "string"
            },
            {
              "internalType": "string",
              "name": "metadataURI",
              "type": "string"
            },
            {
              "internalType": "uint256",
              "name": "timestamp",
              "type": "uint256"
            }
          ],
          "internalType": "struct EthnMagic.TransactionStruct[]",
          "name": "",
          "type": "tuple[]"
        }
      ],
      "stateMutability": "view",
      "type": "function",
      "constant": true
    }
  ],
  "bytecode": "0x60806040526000600f556000601055662386f26fc100006011553480156200002657600080fd5b50604051620059b9380380620059b983398181016040528101906200004c9190620004af565b8383816000908051906020019062000066929190620001c2565b5080600190805190602001906200007f929190620001c2565b505050620000a262000096620000f460201b60201c565b620000fc60201b60201c565b81600e8190555080600d60006101000a81548173ffffffffffffffffffffffffffffffffffffffff021916908373ffffffffffffffffffffffffffffffffffffffff16021790555050505050620005c4565b600033905090565b6000600a60009054906101000a900473ffffffffffffffffffffffffffffffffffffffff16905081600a60006101000a81548173ffffffffffffffffffffffffffffffffffffffff021916908373ffffffffffffffffffffffffffffffffffffffff1602179055508173ffffffffffffffffffffffffffffffffffffffff168173ffffffffffffffffffffffffffffffffffffffff167f8be0079c531659141344cd1fd0a4f28419497f9722a3daafe3b4186f6b6457e060405160405180910390a35050565b828054620001d0906200058e565b90600052602060002090601f016020900481019282620001f4576000855562000240565b82601f106200020f57805160ff191683800117855562000240565b8280016001018555821562000240579182015b828111156200023f57825182559160200191906001019062000222565b5b5090506200024f919062000253565b5090565b5b808211156200026e57600081600090555060010162000254565b5090565b6000604051905090565b600080fd5b600080fd5b600080fd5b600080fd5b6000601f19601f8301169050919050565b7f4e487b7100000000000000000000000000000000000000000000000000000000600052604160045260246000fd5b620002db8262000290565b810181811067ffffffffffffffff82111715620002fd57620002fc620002a1565b5b80604052505050565b60006200031262000272565b9050620003208282620002d0565b919050565b600067ffffffffffffffff821115620003435762000342620002a1565b5b6200034e8262000290565b9050602081019050919050565b60005b838110156200037b5780820151818401526020810190506200035e565b838111156200038b576000848401525b50505050565b6000620003a8620003a28462000325565b62000306565b905082815260208101848484011115620003c757620003c66200028b565b5b620003d48482856200035b565b509392505050565b600082601f830112620003f457620003f362000286565b5b81516200040684826020860162000391565b91505092915050565b6000819050919050565b62000424816200040f565b81146200043057600080fd5b50565b600081519050620004448162000419565b92915050565b600073ffffffffffffffffffffffffffffffffffffffff82169050919050565b600062000477826200044a565b9050919050565b62000489816200046a565b81146200049557600080fd5b50565b600081519050620004a9816200047e565b92915050565b60008060008060808587031215620004cc57620004cb6200027c565b5b600085015167ffffffffffffffff811115620004ed57620004ec62000281565b5b620004fb87828801620003dc565b945050602085015167ffffffffffffffff8111156200051f576200051e62000281565b5b6200052d87828801620003dc565b9350506040620005408782880162000433565b9250506060620005538782880162000498565b91505092959194509250565b7f4e487b7100000000000000000000000000000000000000000000000000000000600052602260045260246000fd5b60006002820490506001821680620005a757607f821691505b60208210811415620005be57620005bd6200055f565b5b50919050565b6153e580620005d46000396000f3fe6080604052600436106101d85760003560e01c806370a0823111610102578063a22cb46511610095578063dbacc23711610064578063dbacc237146106a5578063e0391b09146106e2578063e985e9c51461070d578063f2fde38b1461074a576101d8565b8063a22cb465146105e6578063b3de019c1461060f578063b88d4fde1461064c578063c87b56dd14610668576101d8565b80638da5cb5b116100d15780638da5cb5b1461054957806395d89b41146105745780639ba4b0171461059f578063a035b1fe146105bb576101d8565b806370a08231146104ae578063715018a6146104eb5780637220cf3914610502578063799c0c1e1461052d576101d8565b806327506f531161017a57806343bc16121161014957806343bc1612146103cc5780634f6ccce7146103f7578063576f7ea7146104345780636352211e14610471576101d8565b806327506f531461031d5780632f745c5914610348578063326bb4ad1461038557806342842e0e146103b0576101d8565b8063081812fc116101b6578063081812fc14610270578063095ea7b3146102ad57806318160ddd146102d657806323b872dd14610301576101d8565b806301ffc9a7146101dd578063047fc9aa1461021a57806306fdde0314610245575b600080fd5b3480156101e957600080fd5b5061020460048036038101906101ff919061387e565b610773565b60405161021191906138c6565b60405180910390f35b34801561022657600080fd5b5061022f6107ed565b60405161023c91906138fa565b60405180910390f35b34801561025157600080fd5b5061025a6107f3565b60405161026791906139ae565b60405180910390f35b34801561027c57600080fd5b50610297600480360381019061029291906139fc565b610885565b6040516102a49190613a6a565b60405180910390f35b3480156102b957600080fd5b506102d460048036038101906102cf9190613ab1565b61090a565b005b3480156102e257600080fd5b506102eb610a22565b6040516102f891906138fa565b60405180910390f35b61031b60048036038101906103169190613af1565b610a2f565b005b34801561032957600080fd5b50610332610a8f565b60405161033f9190613d18565b60405180910390f35b34801561035457600080fd5b5061036f600480360381019061036a9190613ab1565b610d18565b60405161037c91906138fa565b60405180910390f35b34801561039157600080fd5b5061039a610dbd565b6040516103a791906138fa565b60405180910390f35b6103ca60048036038101906103c59190613af1565b610dc3565b005b3480156103d857600080fd5b506103e1610de3565b6040516103ee9190613a6a565b60405180910390f35b34801561040357600080fd5b5061041e600480360381019061041991906139fc565b610e09565b60405161042b91906138fa565b60405180910390f35b34801561044057600080fd5b5061045b600480360381019061045691906139fc565b610e7a565b6040516104689190613de4565b60405180910390f35b34801561047d57600080fd5b50610498600480360381019061049391906139fc565b6110ec565b6040516104a59190613a6a565b60405180910390f35b3480156104ba57600080fd5b506104d560048036038101906104d09190613e06565b61119e565b6040516104e291906138fa565b60405180910390f35b3480156104f757600080fd5b50610500611256565b005b34801561050e57600080fd5b5061051761126a565b60405161052491906138fa565b60405180910390f35b61054760048036038101906105429190613f68565b611270565b005b34801561055557600080fd5b5061055e611641565b60405161056b9190613a6a565b60405180910390f35b34801561058057600080fd5b5061058961166b565b60405161059691906139ae565b60405180910390f35b6105b960048036038101906105b491906139fc565b6116fd565b005b3480156105c757600080fd5b506105d0611d52565b6040516105dd91906138fa565b60405180910390f35b3480156105f257600080fd5b5061060d6004803603810190610608919061404f565b611d58565b005b34801561061b57600080fd5b506106366004803603810190610631919061408f565b611d6e565b60405161064391906138c6565b60405180910390f35b61066660048036038101906106619190614170565b611eb1565b005b34801561067457600080fd5b5061068f600480360381019061068a91906139fc565b611f13565b60405161069c91906139ae565b60405180910390f35b3480156106b157600080fd5b506106cc60048036038101906106c791906139fc565b611fba565b6040516106d99190613a6a565b60405180910390f35b3480156106ee57600080fd5b506106f7611fed565b6040516107049190613d18565b60405180910390f35b34801561071957600080fd5b50610734600480360381019061072f91906141f3565b612276565b60405161074191906138c6565b60405180910390f35b34801561075657600080fd5b50610771600480360381019061076c9190613e06565b61230a565b005b60007f780e9d63000000000000000000000000000000000000000000000000000000007bffffffffffffffffffffffffffffffffffffffffffffffffffffffff1916827bffffffffffffffffffffffffffffffffffffffffffffffffffffffff191614806107e657506107e58261238e565b5b9050919050565b600f5481565b60606000805461080290614262565b80601f016020809104026020016040519081016040528092919081815260200182805461082e90614262565b801561087b5780601f106108505761010080835404028352916020019161087b565b820191906000526020600020905b81548152906001019060200180831161085e57829003601f168201915b5050505050905090565b600061089082612470565b6108cf576040517f08c379a00000000000000000000000000000000000000000000000000000000081526004016108c690614306565b60405180910390fd5b6004600083815260200190815260200160002060009054906101000a900473ffffffffffffffffffffffffffffffffffffffff169050919050565b6000610915826110ec565b90508073ffffffffffffffffffffffffffffffffffffffff168373ffffffffffffffffffffffffffffffffffffffff161415610986576040517f08c379a000000000000000000000000000000000000000000000000000000000815260040161097d90614398565b60405180910390fd5b8073ffffffffffffffffffffffffffffffffffffffff166109a56124dc565b73ffffffffffffffffffffffffffffffffffffffff1614806109d457506109d3816109ce6124dc565b612276565b5b610a13576040517f08c379a0000000000000000000000000000000000000000000000000000000008152600401610a0a9061442a565b60405180910390fd5b610a1d83836124e4565b505050565b6000600880549050905090565b610a40610a3a6124dc565b8261259d565b610a7f576040517f08c379a0000000000000000000000000000000000000000000000000000000008152600401610a76906144bc565b60405180910390fd5b610a8a83838361267b565b505050565b60606012805480602002602001604051908101604052809291908181526020016000905b82821015610d0f57838290600052602060002090600702016040518060e0016040529081600082015481526020016001820160009054906101000a900473ffffffffffffffffffffffffffffffffffffffff1673ffffffffffffffffffffffffffffffffffffffff1673ffffffffffffffffffffffffffffffffffffffff16815260200160028201548152602001600382018054610b5090614262565b80601f0160208091040260200160405190810160405280929190818152602001828054610b7c90614262565b8015610bc95780601f10610b9e57610100808354040283529160200191610bc9565b820191906000526020600020905b815481529060010190602001808311610bac57829003601f168201915b50505050508152602001600482018054610be290614262565b80601f0160208091040260200160405190810160405280929190818152602001828054610c0e90614262565b8015610c5b5780601f10610c3057610100808354040283529160200191610c5b565b820191906000526020600020905b815481529060010190602001808311610c3e57829003601f168201915b50505050508152602001600582018054610c7490614262565b80601f0160208091040260200160405190810160405280929190818152602001828054610ca090614262565b8015610ced5780601f10610cc257610100808354040283529160200191610ced565b820191906000526020600020905b815481529060010190602001808311610cd057829003601f168201915b5050505050815260200160068201548152505081526020019060010190610ab3565b50505050905090565b6000610d238361119e565b8210610d64576040517f08c379a0000000000000000000000000000000000000000000000000000000008152600401610d5b9061454e565b60405180910390fd5b600660008473ffffffffffffffffffffffffffffffffffffffff1673ffffffffffffffffffffffffffffffffffffffff168152602001908152602001600020600083815260200190815260200160002054905092915050565b600e5481565b610dde83838360405180602001604052806000815250611eb1565b505050565b600d60009054906101000a900473ffffffffffffffffffffffffffffffffffffffff1681565b6000610e13610a22565b8210610e54576040517f08c379a0000000000000000000000000000000000000000000000000000000008152600401610e4b906145e0565b60405180910390fd5b60088281548110610e6857610e67614600565b5b90600052602060002001549050919050565b610e8261371c565b6013600183610e91919061465e565b81548110610ea257610ea1614600565b5b90600052602060002090600702016040518060e0016040529081600082015481526020016001820160009054906101000a900473ffffffffffffffffffffffffffffffffffffffff1673ffffffffffffffffffffffffffffffffffffffff1673ffffffffffffffffffffffffffffffffffffffff16815260200160028201548152602001600382018054610f3590614262565b80601f0160208091040260200160405190810160405280929190818152602001828054610f6190614262565b8015610fae5780601f10610f8357610100808354040283529160200191610fae565b820191906000526020600020905b815481529060010190602001808311610f9157829003601f168201915b50505050508152602001600482018054610fc790614262565b80601f0160208091040260200160405190810160405280929190818152602001828054610ff390614262565b80156110405780601f1061101557610100808354040283529160200191611040565b820191906000526020600020905b81548152906001019060200180831161102357829003601f168201915b5050505050815260200160058201805461105990614262565b80601f016020809104026020016040519081016040528092919081815260200182805461108590614262565b80156110d25780601f106110a7576101008083540402835291602001916110d2565b820191906000526020600020905b8154815290600101906020018083116110b557829003601f168201915b505050505081526020016006820154815250509050919050565b6000806002600084815260200190815260200160002060009054906101000a900473ffffffffffffffffffffffffffffffffffffffff169050600073ffffffffffffffffffffffffffffffffffffffff168173ffffffffffffffffffffffffffffffffffffffff161415611195576040517f08c379a000000000000000000000000000000000000000000000000000000000815260040161118c90614704565b60405180910390fd5b80915050919050565b60008073ffffffffffffffffffffffffffffffffffffffff168273ffffffffffffffffffffffffffffffffffffffff16141561120f576040517f08c379a000000000000000000000000000000000000000000000000000000000815260040161120690614796565b60405180910390fd5b600360008373ffffffffffffffffffffffffffffffffffffffff1673ffffffffffffffffffffffffffffffffffffffff168152602001908152602001600020549050919050565b61125e6128d7565b6112686000612955565b565b60105481565b803410156112b3576040517f08c379a00000000000000000000000000000000000000000000000000000000081526004016112aa90614802565b60405180910390fd5b6000600b836040516112c5919061485e565b908152602001604051809103902060009054906101000a900460ff1660ff1614611324576040517f08c379a000000000000000000000000000000000000000000000000000000000815260040161131b906148c1565b60405180910390fd5b61132c611641565b73ffffffffffffffffffffffffffffffffffffffff163373ffffffffffffffffffffffffffffffffffffffff16141561139a576040517f08c379a00000000000000000000000000000000000000000000000000000000081526004016113919061492d565b60405180910390fd5b60006064600e54346113ac919061494d565b6113b691906149d6565b90506113e4600d60009054906101000a900473ffffffffffffffffffffffffffffffffffffffff1682612a1b565b6114006113ef611641565b82346113fb919061465e565b612a1b565b600f600081548092919061141390614a07565b919050555060136040518060e00160405280600f5481526020013373ffffffffffffffffffffffffffffffffffffffff1681526020018481526020018781526020018681526020018581526020014281525090806001815401808255809150506001900390600052602060002090600702016000909190919091506000820151816000015560208201518160010160006101000a81548173ffffffffffffffffffffffffffffffffffffffff021916908373ffffffffffffffffffffffffffffffffffffffff16021790555060408201518160020155606082015181600301908051906020019061150592919061376f565b50608082015181600401908051906020019061152292919061376f565b5060a082015181600501908051906020019061153f92919061376f565b5060c0820151816006015550503373ffffffffffffffffffffffffffffffffffffffff167fb9508407a6eccb191d8da3286f4173697cf95604e9ea192fe5ab7c862b5221f6600f5434864260405161159a9493929190614a50565b60405180910390a26115ae33600f54612a96565b6001600b846040516115c0919061485e565b908152602001604051809103902060006101000a81548160ff021916908360ff16021790555033600c6000600f54815260200190815260200160002060006101000a81548173ffffffffffffffffffffffffffffffffffffffff021916908373ffffffffffffffffffffffffffffffffffffffff1602179055505050505050565b6000600a60009054906101000a900473ffffffffffffffffffffffffffffffffffffffff16905090565b60606001805461167a90614262565b80601f01602080910402602001604051908101604052809291908181526020018280546116a690614262565b80156116f35780601f106116c8576101008083540402835291602001916116f3565b820191906000526020600020905b8154815290600101906020018083116116d657829003601f168201915b5050505050905090565b601360018261170c919061465e565b8154811061171d5761171c614600565b5b906000526020600020906007020160020154341015611771576040517f08c379a000000000000000000000000000000000000000000000000000000000815260040161176890614ae8565b60405180910390fd5b6013600182611780919061465e565b8154811061179157611790614600565b5b906000526020600020906007020160010160009054906101000a900473ffffffffffffffffffffffffffffffffffffffff1673ffffffffffffffffffffffffffffffffffffffff163373ffffffffffffffffffffffffffffffffffffffff161415611831576040517f08c379a000000000000000000000000000000000000000000000000000000000815260040161182890614b54565b60405180910390fd5b60006064600e5434611843919061494d565b61184d91906149d6565b905061187b600d60009054906101000a900473ffffffffffffffffffffffffffffffffffffffff1682612a1b565b6118e1601360018461188d919061465e565b8154811061189e5761189d614600565b5b906000526020600020906007020160010160009054906101000a900473ffffffffffffffffffffffffffffffffffffffff1682346118dc919061465e565b612a1b565b601060008154809291906118f490614a07565b919050555060126040518060e0016040528060105481526020013373ffffffffffffffffffffffffffffffffffffffff168152602001348152602001601360018661193f919061465e565b815481106119505761194f614600565b5b9060005260206000209060070201600301805461196c90614262565b80601f016020809104026020016040519081016040528092919081815260200182805461199890614262565b80156119e55780601f106119ba576101008083540402835291602001916119e5565b820191906000526020600020905b8154815290600101906020018083116119c857829003601f168201915b5050505050815260200160136001866119fe919061465e565b81548110611a0f57611a0e614600565b5b90600052602060002090600702016004018054611a2b90614262565b80601f0160208091040260200160405190810160405280929190818152602001828054611a5790614262565b8015611aa45780601f10611a7957610100808354040283529160200191611aa4565b820191906000526020600020905b815481529060010190602001808311611a8757829003601f168201915b505050505081526020016013600186611abd919061465e565b81548110611ace57611acd614600565b5b90600052602060002090600702016005018054611aea90614262565b80601f0160208091040260200160405190810160405280929190818152602001828054611b1690614262565b8015611b635780601f10611b3857610100808354040283529160200191611b63565b820191906000526020600020905b815481529060010190602001808311611b4657829003601f168201915b505050505081526020014281525090806001815401808255809150506001900390600052602060002090600702016000909190919091506000820151816000015560208201518160010160006101000a81548173ffffffffffffffffffffffffffffffffffffffff021916908373ffffffffffffffffffffffffffffffffffffffff160217905550604082015181600201556060820151816003019080519060200190611c1192919061376f565b506080820151816004019080519060200190611c2e92919061376f565b5060a0820151816005019080519060200190611c4b92919061376f565b5060c0820151816006015550503373ffffffffffffffffffffffffffffffffffffffff167fb9508407a6eccb191d8da3286f4173697cf95604e9ea192fe5ab7c862b5221f6601054346013600187611ca3919061465e565b81548110611cb457611cb3614600565b5b906000526020600020906007020160050142604051611cd69493929190614c09565b60405180910390a2336013600184611cee919061465e565b81548110611cff57611cfe614600565b5b906000526020600020906007020160010160006101000a81548173ffffffffffffffffffffffffffffffffffffffff021916908373ffffffffffffffffffffffffffffffffffffffff1602179055505050565b60115481565b611d6a611d636124dc565b8383612ab4565b5050565b6000808211611db2576040517f08c379a0000000000000000000000000000000000000000000000000000000008152600401611da990614ae8565b60405180910390fd5b6013600184611dc1919061465e565b81548110611dd257611dd1614600565b5b906000526020600020906007020160010160009054906101000a900473ffffffffffffffffffffffffffffffffffffffff1673ffffffffffffffffffffffffffffffffffffffff163373ffffffffffffffffffffffffffffffffffffffff1614611e71576040517f08c379a0000000000000000000000000000000000000000000000000000000008152600401611e6890614ca1565b60405180910390fd5b816013600185611e81919061465e565b81548110611e9257611e91614600565b5b9060005260206000209060070201600201819055506001905092915050565b611ec2611ebc6124dc565b8361259d565b611f01576040517f08c379a0000000000000000000000000000000000000000000000000000000008152600401611ef8906144bc565b60405180910390fd5b611f0d84848484612c21565b50505050565b6060611f1e82612470565b611f5d576040517f08c379a0000000000000000000000000000000000000000000000000000000008152600401611f5490614d33565b60405180910390fd5b6000611f67612c7d565b90506000815111611f875760405180602001604052806000815250611fb2565b80611f9184612c94565b604051602001611fa2929190614d53565b6040516020818303038152906040525b915050919050565b600c6020528060005260406000206000915054906101000a900473ffffffffffffffffffffffffffffffffffffffff1681565b60606013805480602002602001604051908101604052809291908181526020016000905b8282101561226d57838290600052602060002090600702016040518060e0016040529081600082015481526020016001820160009054906101000a900473ffffffffffffffffffffffffffffffffffffffff1673ffffffffffffffffffffffffffffffffffffffff1673ffffffffffffffffffffffffffffffffffffffff168152602001600282015481526020016003820180546120ae90614262565b80601f01602080910402602001604051908101604052809291908181526020018280546120da90614262565b80156121275780601f106120fc57610100808354040283529160200191612127565b820191906000526020600020905b81548152906001019060200180831161210a57829003601f168201915b5050505050815260200160048201805461214090614262565b80601f016020809104026020016040519081016040528092919081815260200182805461216c90614262565b80156121b95780601f1061218e576101008083540402835291602001916121b9565b820191906000526020600020905b81548152906001019060200180831161219c57829003601f168201915b505050505081526020016005820180546121d290614262565b80601f01602080910402602001604051908101604052809291908181526020018280546121fe90614262565b801561224b5780601f106122205761010080835404028352916020019161224b565b820191906000526020600020905b81548152906001019060200180831161222e57829003601f168201915b5050505050815260200160068201548152505081526020019060010190612011565b50505050905090565b6000600560008473ffffffffffffffffffffffffffffffffffffffff1673ffffffffffffffffffffffffffffffffffffffff16815260200190815260200160002060008373ffffffffffffffffffffffffffffffffffffffff1673ffffffffffffffffffffffffffffffffffffffff16815260200190815260200160002060009054906101000a900460ff16905092915050565b6123126128d7565b600073ffffffffffffffffffffffffffffffffffffffff168173ffffffffffffffffffffffffffffffffffffffff161415612382576040517f08c379a000000000000000000000000000000000000000000000000000000000815260040161237990614de9565b60405180910390fd5b61238b81612955565b50565b60007f80ac58cd000000000000000000000000000000000000000000000000000000007bffffffffffffffffffffffffffffffffffffffffffffffffffffffff1916827bffffffffffffffffffffffffffffffffffffffffffffffffffffffff1916148061245957507f5b5e139f000000000000000000000000000000000000000000000000000000007bffffffffffffffffffffffffffffffffffffffffffffffffffffffff1916827bffffffffffffffffffffffffffffffffffffffffffffffffffffffff1916145b80612469575061246882612d6c565b5b9050919050565b60008073ffffffffffffffffffffffffffffffffffffffff166002600084815260200190815260200160002060009054906101000a900473ffffffffffffffffffffffffffffffffffffffff1673ffffffffffffffffffffffffffffffffffffffff1614159050919050565b600033905090565b816004600083815260200190815260200160002060006101000a81548173ffffffffffffffffffffffffffffffffffffffff021916908373ffffffffffffffffffffffffffffffffffffffff160217905550808273ffffffffffffffffffffffffffffffffffffffff16612557836110ec565b73ffffffffffffffffffffffffffffffffffffffff167f8c5be1e5ebec7d5bd14f71427d1e84f3dd0314c0f7b2291e5b200ac8c7c3b92560405160405180910390a45050565b60006125a882612470565b6125e7576040517f08c379a00000000000000000000000000000000000000000000000000000000081526004016125de90614e7b565b60405180910390fd5b60006125f2836110ec565b90508073ffffffffffffffffffffffffffffffffffffffff168473ffffffffffffffffffffffffffffffffffffffff16148061266157508373ffffffffffffffffffffffffffffffffffffffff1661264984610885565b73ffffffffffffffffffffffffffffffffffffffff16145b8061267257506126718185612276565b5b91505092915050565b8273ffffffffffffffffffffffffffffffffffffffff1661269b826110ec565b73ffffffffffffffffffffffffffffffffffffffff16146126f1576040517f08c379a00000000000000000000000000000000000000000000000000000000081526004016126e890614f0d565b60405180910390fd5b600073ffffffffffffffffffffffffffffffffffffffff168273ffffffffffffffffffffffffffffffffffffffff161415612761576040517f08c379a000000000000000000000000000000000000000000000000000000000815260040161275890614f9f565b60405180910390fd5b61276c838383612dd6565b6127776000826124e4565b6001600360008573ffffffffffffffffffffffffffffffffffffffff1673ffffffffffffffffffffffffffffffffffffffff16815260200190815260200160002060008282546127c7919061465e565b925050819055506001600360008473ffffffffffffffffffffffffffffffffffffffff1673ffffffffffffffffffffffffffffffffffffffff168152602001908152602001600020600082825461281e9190614fbf565b92505081905550816002600083815260200190815260200160002060006101000a81548173ffffffffffffffffffffffffffffffffffffffff021916908373ffffffffffffffffffffffffffffffffffffffff160217905550808273ffffffffffffffffffffffffffffffffffffffff168473ffffffffffffffffffffffffffffffffffffffff167fddf252ad1be2c89b69c2b068fc378daa952ba7f163c4a11628f55a4df523b3ef60405160405180910390a4505050565b6128df6124dc565b73ffffffffffffffffffffffffffffffffffffffff166128fd611641565b73ffffffffffffffffffffffffffffffffffffffff1614612953576040517f08c379a000000000000000000000000000000000000000000000000000000000815260040161294a90615061565b60405180910390fd5b565b6000600a60009054906101000a900473ffffffffffffffffffffffffffffffffffffffff16905081600a60006101000a81548173ffffffffffffffffffffffffffffffffffffffff021916908373ffffffffffffffffffffffffffffffffffffffff1602179055508173ffffffffffffffffffffffffffffffffffffffff168173ffffffffffffffffffffffffffffffffffffffff167f8be0079c531659141344cd1fd0a4f28419497f9722a3daafe3b4186f6b6457e060405160405180910390a35050565b60008273ffffffffffffffffffffffffffffffffffffffff1682604051612a41906150b2565b60006040518083038185875af1925050503d8060008114612a7e576040519150601f19603f3d011682016040523d82523d6000602084013e612a83565b606091505b5050905080612a9157600080fd5b505050565b612ab0828260405180602001604052806000815250612eea565b5050565b8173ffffffffffffffffffffffffffffffffffffffff168373ffffffffffffffffffffffffffffffffffffffff161415612b23576040517f08c379a0000000000000000000000000000000000000000000000000000000008152600401612b1a90615113565b60405180910390fd5b80600560008573ffffffffffffffffffffffffffffffffffffffff1673ffffffffffffffffffffffffffffffffffffffff16815260200190815260200160002060008473ffffffffffffffffffffffffffffffffffffffff1673ffffffffffffffffffffffffffffffffffffffff16815260200190815260200160002060006101000a81548160ff0219169083151502179055508173ffffffffffffffffffffffffffffffffffffffff168373ffffffffffffffffffffffffffffffffffffffff167f17307eab39ab6107e8899845ad3d59bd9653f200f220920489ca2b5937696c3183604051612c1491906138c6565b60405180910390a3505050565b612c2c84848461267b565b612c3884848484612f45565b612c77576040517f08c379a0000000000000000000000000000000000000000000000000000000008152600401612c6e906151a5565b60405180910390fd5b50505050565b606060405180602001604052806000815250905090565b606060006001612ca3846130cd565b01905060008167ffffffffffffffff811115612cc257612cc1613e3d565b5b6040519080825280601f01601f191660200182016040528015612cf45781602001600182028036833780820191505090505b509050600082602001820190505b600115612d61578080600190039150507f3031323334353637383961626364656600000000000000000000000000000000600a86061a8153600a8581612d4b57612d4a6149a7565b5b0494506000851415612d5c57612d61565b612d02565b819350505050919050565b60007f01ffc9a7000000000000000000000000000000000000000000000000000000007bffffffffffffffffffffffffffffffffffffffffffffffffffffffff1916827bffffffffffffffffffffffffffffffffffffffffffffffffffffffff1916149050919050565b612de1838383613220565b600073ffffffffffffffffffffffffffffffffffffffff168373ffffffffffffffffffffffffffffffffffffffff161415612e2457612e1f81613225565b612e63565b8173ffffffffffffffffffffffffffffffffffffffff168373ffffffffffffffffffffffffffffffffffffffff1614612e6257612e61838261326e565b5b5b600073ffffffffffffffffffffffffffffffffffffffff168273ffffffffffffffffffffffffffffffffffffffff161415612ea657612ea1816133db565b612ee5565b8273ffffffffffffffffffffffffffffffffffffffff168273ffffffffffffffffffffffffffffffffffffffff1614612ee457612ee382826134ac565b5b5b505050565b612ef4838361352b565b612f016000848484612f45565b612f40576040517f08c379a0000000000000000000000000000000000000000000000000000000008152600401612f37906151a5565b60405180910390fd5b505050565b6000612f668473ffffffffffffffffffffffffffffffffffffffff166136f9565b156130c0578373ffffffffffffffffffffffffffffffffffffffff1663150b7a02612f8f6124dc565b8786866040518563ffffffff1660e01b8152600401612fb1949392919061521a565b6020604051808303816000875af1925050508015612fed57506040513d601f19601f82011682018060405250810190612fea919061527b565b60015b613070573d806000811461301d576040519150601f19603f3d011682016040523d82523d6000602084013e613022565b606091505b50600081511415613068576040517f08c379a000000000000000000000000000000000000000000000000000000000815260040161305f906151a5565b60405180910390fd5b805181602001fd5b63150b7a0260e01b7bffffffffffffffffffffffffffffffffffffffffffffffffffffffff1916817bffffffffffffffffffffffffffffffffffffffffffffffffffffffff1916149150506130c5565b600190505b949350505050565b600080600090507a184f03e93ff9f4daa797ed6e38ed64bf6a1f010000000000000000831061312b577a184f03e93ff9f4daa797ed6e38ed64bf6a1f0100000000000000008381613121576131206149a7565b5b0492506040810190505b6d04ee2d6d415b85acef81000000008310613168576d04ee2d6d415b85acef8100000000838161315e5761315d6149a7565b5b0492506020810190505b662386f26fc10000831061319757662386f26fc10000838161318d5761318c6149a7565b5b0492506010810190505b6305f5e10083106131c0576305f5e10083816131b6576131b56149a7565b5b0492506008810190505b61271083106131e55761271083816131db576131da6149a7565b5b0492506004810190505b6064831061320857606483816131fe576131fd6149a7565b5b0492506002810190505b600a8310613217576001810190505b80915050919050565b505050565b6008805490506009600083815260200190815260200160002081905550600881908060018154018082558091505060019003906000526020600020016000909190919091505550565b6000600161327b8461119e565b613285919061465e565b905060006007600084815260200190815260200160002054905081811461336a576000600660008673ffffffffffffffffffffffffffffffffffffffff1673ffffffffffffffffffffffffffffffffffffffff168152602001908152602001600020600084815260200190815260200160002054905080600660008773ffffffffffffffffffffffffffffffffffffffff1673ffffffffffffffffffffffffffffffffffffffff168152602001908152602001600020600084815260200190815260200160002081905550816007600083815260200190815260200160002081905550505b6007600084815260200190815260200160002060009055600660008573ffffffffffffffffffffffffffffffffffffffff1673ffffffffffffffffffffffffffffffffffffffff16815260200190815260200160002060008381526020019081526020016000206000905550505050565b600060016008805490506133ef919061465e565b905060006009600084815260200190815260200160002054905060006008838154811061341f5761341e614600565b5b90600052602060002001549050806008838154811061344157613440614600565b5b9060005260206000200181905550816009600083815260200190815260200160002081905550600960008581526020019081526020016000206000905560088054806134905761348f6152a8565b5b6001900381819060005260206000200160009055905550505050565b60006134b78361119e565b905081600660008573ffffffffffffffffffffffffffffffffffffffff1673ffffffffffffffffffffffffffffffffffffffff168152602001908152602001600020600083815260200190815260200160002081905550806007600084815260200190815260200160002081905550505050565b600073ffffffffffffffffffffffffffffffffffffffff168273ffffffffffffffffffffffffffffffffffffffff16141561359b576040517f08c379a000000000000000000000000000000000000000000000000000000000815260040161359290615323565b60405180910390fd5b6135a481612470565b156135e4576040517f08c379a00000000000000000000000000000000000000000000000000000000081526004016135db9061538f565b60405180910390fd5b6135f060008383612dd6565b6001600360008473ffffffffffffffffffffffffffffffffffffffff1673ffffffffffffffffffffffffffffffffffffffff16815260200190815260200160002060008282546136409190614fbf565b92505081905550816002600083815260200190815260200160002060006101000a81548173ffffffffffffffffffffffffffffffffffffffff021916908373ffffffffffffffffffffffffffffffffffffffff160217905550808273ffffffffffffffffffffffffffffffffffffffff16600073ffffffffffffffffffffffffffffffffffffffff167fddf252ad1be2c89b69c2b068fc378daa952ba7f163c4a11628f55a4df523b3ef60405160405180910390a45050565b6000808273ffffffffffffffffffffffffffffffffffffffff163b119050919050565b6040518060e0016040528060008152602001600073ffffffffffffffffffffffffffffffffffffffff16815260200160008152602001606081526020016060815260200160608152602001600081525090565b82805461377b90614262565b90600052602060002090601f01602090048101928261379d57600085556137e4565b82601f106137b657805160ff19168380011785556137e4565b828001600101855582156137e4579182015b828111156137e35782518255916020019190600101906137c8565b5b5090506137f191906137f5565b5090565b5b8082111561380e5760008160009055506001016137f6565b5090565b6000604051905090565b600080fd5b600080fd5b60007fffffffff0000000000000000000000000000000000000000000000000000000082169050919050565b61385b81613826565b811461386657600080fd5b50565b60008135905061387881613852565b92915050565b6000602082840312156138945761389361381c565b5b60006138a284828501613869565b91505092915050565b60008115159050919050565b6138c0816138ab565b82525050565b60006020820190506138db60008301846138b7565b92915050565b6000819050919050565b6138f4816138e1565b82525050565b600060208201905061390f60008301846138eb565b92915050565b600081519050919050565b600082825260208201905092915050565b60005b8381101561394f578082015181840152602081019050613934565b8381111561395e576000848401525b50505050565b6000601f19601f8301169050919050565b600061398082613915565b61398a8185613920565b935061399a818560208601613931565b6139a381613964565b840191505092915050565b600060208201905081810360008301526139c88184613975565b905092915050565b6139d9816138e1565b81146139e457600080fd5b50565b6000813590506139f6816139d0565b92915050565b600060208284031215613a1257613a1161381c565b5b6000613a20848285016139e7565b91505092915050565b600073ffffffffffffffffffffffffffffffffffffffff82169050919050565b6000613a5482613a29565b9050919050565b613a6481613a49565b82525050565b6000602082019050613a7f6000830184613a5b565b92915050565b613a8e81613a49565b8114613a9957600080fd5b50565b600081359050613aab81613a85565b92915050565b60008060408385031215613ac857613ac761381c565b5b6000613ad685828601613a9c565b9250506020613ae7858286016139e7565b9150509250929050565b600080600060608486031215613b0a57613b0961381c565b5b6000613b1886828701613a9c565b9350506020613b2986828701613a9c565b9250506040613b3a868287016139e7565b9150509250925092565b600081519050919050565b600082825260208201905092915050565b6000819050602082019050919050565b613b79816138e1565b82525050565b613b8881613a49565b82525050565b600082825260208201905092915050565b6000613baa82613915565b613bb48185613b8e565b9350613bc4818560208601613931565b613bcd81613964565b840191505092915050565b600060e083016000830151613bf06000860182613b70565b506020830151613c036020860182613b7f565b506040830151613c166040860182613b70565b5060608301518482036060860152613c2e8282613b9f565b91505060808301518482036080860152613c488282613b9f565b91505060a083015184820360a0860152613c628282613b9f565b91505060c0830151613c7760c0860182613b70565b508091505092915050565b6000613c8e8383613bd8565b905092915050565b6000602082019050919050565b6000613cae82613b44565b613cb88185613b4f565b935083602082028501613cca85613b60565b8060005b85811015613d065784840389528151613ce78582613c82565b9450613cf283613c96565b925060208a01995050600181019050613cce565b50829750879550505050505092915050565b60006020820190508181036000830152613d328184613ca3565b905092915050565b600060e083016000830151613d526000860182613b70565b506020830151613d656020860182613b7f565b506040830151613d786040860182613b70565b5060608301518482036060860152613d908282613b9f565b91505060808301518482036080860152613daa8282613b9f565b91505060a083015184820360a0860152613dc48282613b9f565b91505060c0830151613dd960c0860182613b70565b508091505092915050565b60006020820190508181036000830152613dfe8184613d3a565b905092915050565b600060208284031215613e1c57613e1b61381c565b5b6000613e2a84828501613a9c565b91505092915050565b600080fd5b600080fd5b7f4e487b7100000000000000000000000000000000000000000000000000000000600052604160045260246000fd5b613e7582613964565b810181811067ffffffffffffffff82111715613e9457613e93613e3d565b5b80604052505050565b6000613ea7613812565b9050613eb38282613e6c565b919050565b600067ffffffffffffffff821115613ed357613ed2613e3d565b5b613edc82613964565b9050602081019050919050565b82818337600083830152505050565b6000613f0b613f0684613eb8565b613e9d565b905082815260208101848484011115613f2757613f26613e38565b5b613f32848285613ee9565b509392505050565b600082601f830112613f4f57613f4e613e33565b5b8135613f5f848260208601613ef8565b91505092915050565b60008060008060808587031215613f8257613f8161381c565b5b600085013567ffffffffffffffff811115613fa057613f9f613821565b5b613fac87828801613f3a565b945050602085013567ffffffffffffffff811115613fcd57613fcc613821565b5b613fd987828801613f3a565b935050604085013567ffffffffffffffff811115613ffa57613ff9613821565b5b61400687828801613f3a565b9250506060614017878288016139e7565b91505092959194509250565b61402c816138ab565b811461403757600080fd5b50565b60008135905061404981614023565b92915050565b600080604083850312156140665761406561381c565b5b600061407485828601613a9c565b92505060206140858582860161403a565b9150509250929050565b600080604083850312156140a6576140a561381c565b5b60006140b4858286016139e7565b92505060206140c5858286016139e7565b9150509250929050565b600067ffffffffffffffff8211156140ea576140e9613e3d565b5b6140f382613964565b9050602081019050919050565b600061411361410e846140cf565b613e9d565b90508281526020810184848401111561412f5761412e613e38565b5b61413a848285613ee9565b509392505050565b600082601f83011261415757614156613e33565b5b8135614167848260208601614100565b91505092915050565b6000806000806080858703121561418a5761418961381c565b5b600061419887828801613a9c565b94505060206141a987828801613a9c565b93505060406141ba878288016139e7565b925050606085013567ffffffffffffffff8111156141db576141da613821565b5b6141e787828801614142565b91505092959194509250565b6000806040838503121561420a5761420961381c565b5b600061421885828601613a9c565b925050602061422985828601613a9c565b9150509250929050565b7f4e487b7100000000000000000000000000000000000000000000000000000000600052602260045260246000fd5b6000600282049050600182168061427a57607f821691505b6020821081141561428e5761428d614233565b5b50919050565b7f4552433732313a20617070726f76656420717565727920666f72206e6f6e657860008201527f697374656e7420746f6b656e0000000000000000000000000000000000000000602082015250565b60006142f0602c83613920565b91506142fb82614294565b604082019050919050565b6000602082019050818103600083015261431f816142e3565b9050919050565b7f4552433732313a20617070726f76616c20746f2063757272656e74206f776e6560008201527f7200000000000000000000000000000000000000000000000000000000000000602082015250565b6000614382602183613920565b915061438d82614326565b604082019050919050565b600060208201905081810360008301526143b181614375565b9050919050565b7f4552433732313a20617070726f76652063616c6c6572206973206e6f74206f7760008201527f6e6572206e6f7220617070726f76656420666f7220616c6c0000000000000000602082015250565b6000614414603883613920565b915061441f826143b8565b604082019050919050565b6000602082019050818103600083015261444381614407565b9050919050565b7f4552433732313a207472616e736665722063616c6c6572206973206e6f74206f60008201527f776e6572206e6f7220617070726f766564000000000000000000000000000000602082015250565b60006144a6603183613920565b91506144b18261444a565b604082019050919050565b600060208201905081810360008301526144d581614499565b9050919050565b7f455243373231456e756d657261626c653a206f776e657220696e646578206f7560008201527f74206f6620626f756e6473000000000000000000000000000000000000000000602082015250565b6000614538602b83613920565b9150614543826144dc565b604082019050919050565b600060208201905081810360008301526145678161452b565b9050919050565b7f455243373231456e756d657261626c653a20676c6f62616c20696e646578206f60008201527f7574206f6620626f756e64730000000000000000000000000000000000000000602082015250565b60006145ca602c83613920565b91506145d58261456e565b604082019050919050565b600060208201905081810360008301526145f9816145bd565b9050919050565b7f4e487b7100000000000000000000000000000000000000000000000000000000600052603260045260246000fd5b7f4e487b7100000000000000000000000000000000000000000000000000000000600052601160045260246000fd5b6000614669826138e1565b9150614674836138e1565b9250828210156146875761468661462f565b5b828203905092915050565b7f4552433732313a206f776e657220717565727920666f72206e6f6e657869737460008201527f656e7420746f6b656e0000000000000000000000000000000000000000000000602082015250565b60006146ee602983613920565b91506146f982614692565b604082019050919050565b6000602082019050818103600083015261471d816146e1565b9050919050565b7f4552433732313a2062616c616e636520717565727920666f7220746865207a6560008201527f726f206164647265737300000000000000000000000000000000000000000000602082015250565b6000614780602a83613920565b915061478b82614724565b604082019050919050565b600060208201905081810360008301526147af81614773565b9050919050565b7f457468657220746f6f206c6f7720666f72206d696e74696e6721000000000000600082015250565b60006147ec601a83613920565b91506147f7826147b6565b602082019050919050565b6000602082019050818103600083015261481b816147df565b9050919050565b600081905092915050565b600061483882613915565b6148428185614822565b9350614852818560208601613931565b80840191505092915050565b600061486a828461482d565b915081905092915050565b7f54686973204e465420697320616c7265616479206d696e746564210000000000600082015250565b60006148ab601b83613920565b91506148b682614875565b602082019050919050565b600060208201905081810360008301526148da8161489e565b9050919050565b7f53616c6573206e6f7420616c6c6f776564210000000000000000000000000000600082015250565b6000614917601283613920565b9150614922826148e1565b602082019050919050565b600060208201905081810360008301526149468161490a565b9050919050565b6000614958826138e1565b9150614963836138e1565b9250817fffffffffffffffffffffffffffffffffffffffffffffffffffffffffffffffff048311821515161561499c5761499b61462f565b5b828202905092915050565b7f4e487b7100000000000000000000000000000000000000000000000000000000600052601260045260246000fd5b60006149e1826138e1565b91506149ec836138e1565b9250826149fc576149fb6149a7565b5b828204905092915050565b6000614a12826138e1565b91507fffffffffffffffffffffffffffffffffffffffffffffffffffffffffffffffff821415614a4557614a4461462f565b5b600182019050919050565b6000608082019050614a6560008301876138eb565b614a7260208301866138eb565b8181036040830152614a848185613975565b9050614a9360608301846138eb565b95945050505050565b7f496e73756666696369656e742042616c616e6365000000000000000000000000600082015250565b6000614ad2601483613920565b9150614add82614a9c565b602082019050919050565b60006020820190508181036000830152614b0181614ac5565b9050919050565b7f556e617574686f72697a6564205472616e73616374696f6e0000000000000000600082015250565b6000614b3e601883613920565b9150614b4982614b08565b602082019050919050565b60006020820190508181036000830152614b6d81614b31565b9050919050565b60008190508160005260206000209050919050565b60008154614b9681614262565b614ba08186613920565b94506001821660008114614bbb5760018114614bcd57614c00565b60ff1983168652602086019350614c00565b614bd685614b74565b60005b83811015614bf857815481890152600182019150602081019050614bd9565b808801955050505b50505092915050565b6000608082019050614c1e60008301876138eb565b614c2b60208301866138eb565b8181036040830152614c3d8185614b89565b9050614c4c60608301846138eb565b95945050505050565b7f556e617574686f72697a65640000000000000000000000000000000000000000600082015250565b6000614c8b600c83613920565b9150614c9682614c55565b602082019050919050565b60006020820190508181036000830152614cba81614c7e565b9050919050565b7f4552433732314d657461646174613a2055524920717565727920666f72206e6f60008201527f6e6578697374656e7420746f6b656e0000000000000000000000000000000000602082015250565b6000614d1d602f83613920565b9150614d2882614cc1565b604082019050919050565b60006020820190508181036000830152614d4c81614d10565b9050919050565b6000614d5f828561482d565b9150614d6b828461482d565b91508190509392505050565b7f4f776e61626c653a206e6577206f776e657220697320746865207a65726f206160008201527f6464726573730000000000000000000000000000000000000000000000000000602082015250565b6000614dd3602683613920565b9150614dde82614d77565b604082019050919050565b60006020820190508181036000830152614e0281614dc6565b9050919050565b7f4552433732313a206f70657261746f7220717565727920666f72206e6f6e657860008201527f697374656e7420746f6b656e0000000000000000000000000000000000000000602082015250565b6000614e65602c83613920565b9150614e7082614e09565b604082019050919050565b60006020820190508181036000830152614e9481614e58565b9050919050565b7f4552433732313a207472616e73666572206f6620746f6b656e2074686174206960008201527f73206e6f74206f776e0000000000000000000000000000000000000000000000602082015250565b6000614ef7602983613920565b9150614f0282614e9b565b604082019050919050565b60006020820190508181036000830152614f2681614eea565b9050919050565b7f4552433732313a207472616e7366657220746f20746865207a65726f2061646460008201527f7265737300000000000000000000000000000000000000000000000000000000602082015250565b6000614f89602483613920565b9150614f9482614f2d565b604082019050919050565b60006020820190508181036000830152614fb881614f7c565b9050919050565b6000614fca826138e1565b9150614fd5836138e1565b9250827fffffffffffffffffffffffffffffffffffffffffffffffffffffffffffffffff0382111561500a5761500961462f565b5b828201905092915050565b7f4f776e61626c653a2063616c6c6572206973206e6f7420746865206f776e6572600082015250565b600061504b602083613920565b915061505682615015565b602082019050919050565b6000602082019050818103600083015261507a8161503e565b9050919050565b600081905092915050565b50565b600061509c600083615081565b91506150a78261508c565b600082019050919050565b60006150bd8261508f565b9150819050919050565b7f4552433732313a20617070726f766520746f2063616c6c657200000000000000600082015250565b60006150fd601983613920565b9150615108826150c7565b602082019050919050565b6000602082019050818103600083015261512c816150f0565b9050919050565b7f4552433732313a207472616e7366657220746f206e6f6e20455243373231526560008201527f63656976657220696d706c656d656e7465720000000000000000000000000000602082015250565b600061518f603283613920565b915061519a82615133565b604082019050919050565b600060208201905081810360008301526151be81615182565b9050919050565b600081519050919050565b600082825260208201905092915050565b60006151ec826151c5565b6151f681856151d0565b9350615206818560208601613931565b61520f81613964565b840191505092915050565b600060808201905061522f6000830187613a5b565b61523c6020830186613a5b565b61524960408301856138eb565b818103606083015261525b81846151e1565b905095945050505050565b60008151905061527581613852565b92915050565b6000602082840312156152915761529061381c565b5b600061529f84828501615266565b91505092915050565b7f4e487b7100000000000000000000000000000000000000000000000000000000600052603160045260246000fd5b7f4552433732313a206d696e7420746f20746865207a65726f2061646472657373600082015250565b600061530d602083613920565b9150615318826152d7565b602082019050919050565b6000602082019050818103600083015261533c81615300565b9050919050565b7f4552433732313a20746f6b656e20616c7265616479206d696e74656400000000600082015250565b6000615379601c83613920565b915061538482615343565b602082019050919050565b600060208201905081810360008301526153a88161536c565b905091905056fea264697066735822122019fe2f77f34bb12ac8e5de856b8a21cced728a87817e4a9246c6691fa2d1290a64736f6c634300080b0033",
  "immutableReferences": {},
  "source": "// SPDX-License-Identifier: MIT\npragma solidity >=0.7.0 <0.9.0;\n\nimport \"./ERC721.sol\";\nimport \"./ERC721Enumerable.sol\";\nimport \"@openzeppelin/contracts/access/Ownable.sol\";\n\ncontract EthnMagic is ERC721Enumerable, Ownable {\n    using Strings for uint256;\n    mapping(string => uint8) existingURIs;\n    mapping(uint256 => address) public holderOf;\n\n    address public artist;\n    uint256 public royalityFee;\n    uint256 public supply = 0;\n    uint256 public totalTx = 0;\n    uint256 public price = 0.01 ether;\n\n    event Sale(\n        uint256 id,\n        address indexed owner,\n        uint256 price,\n        string metadataURI,\n        uint256 timestamp\n    );\n\n    struct TransactionStruct {\n        uint256 id;\n        address owner;\n        uint256 price;\n        string title;\n        string description;\n        string metadataURI;\n        uint256 timestamp;\n    }\n\n    TransactionStruct[] transactions;\n    TransactionStruct[] minted;\n\n    constructor(\n        string memory _name,\n        string memory _symbol,\n        uint256 _royalityFee,\n        address _artist\n    ) ERC721(_name, _symbol) {\n        royalityFee = _royalityFee;\n        artist = _artist;\n    }\n\n    function payToMint(\n        string memory title,\n        string memory description,\n        string memory metadataURI,\n        uint256 price\n    ) external payable {\n        require(msg.value >= price, \"Ether too low for minting!\");\n        require(existingURIs[metadataURI] == 0, \"This NFT is already minted!\");\n        require(msg.sender != owner(), \"Sales not allowed!\");\n\n\n        uint256 royality = (msg.value * royalityFee) / 100;\n        payTo(artist, royality);\n        payTo(owner(), (msg.value - royality));\n\n        supply++;\n\n        minted.push(\n            TransactionStruct(\n                supply,\n                msg.sender,\n                price,\n                title,\n                description,\n                metadataURI,\n                block.timestamp\n            )\n        );\n\n        emit Sale(\n            supply,\n            msg.sender,\n            msg.value,\n            metadataURI,\n            block.timestamp\n        );\n\n        _safeMint(msg.sender, supply);\n        existingURIs[metadataURI] = 1;\n        holderOf[supply] = msg.sender;\n    }\n\n    function payToBuy(uint256 id) external payable {\n        require(msg.value >= minted[id - 1].price, \"Insufficient Balance\");\n        require(msg.sender != minted[id - 1].owner, \"Unauthorized Transaction\");\n\n        uint256 royality = (msg.value * royalityFee) / 100;\n        payTo(artist, royality);\n        payTo(minted[id - 1].owner, (msg.value - royality));\n\n        totalTx++;\n\n        transactions.push(\n            TransactionStruct(\n                totalTx,\n                msg.sender,\n                msg.value,\n                minted[id - 1].title,\n                minted[id - 1].description,\n                minted[id - 1].metadataURI,\n                block.timestamp\n            )\n        );\n\n        emit Sale(\n            totalTx,\n            msg.sender,\n            msg.value,\n            minted[id - 1].metadataURI,\n            block.timestamp\n        );\n\n        minted[id - 1].owner = msg.sender;\n    }\n\n    function changePrice(uint256 id, uint256 newPrice) external returns (bool) {\n        require(newPrice > 0 ether, \"Insufficient Balance\");\n        require(msg.sender == minted[id - 1].owner, \"Unauthorized\");\n\n        minted[id - 1].price = newPrice;\n        return true;\n    }\n\n    function payTo(address to, uint256 amount) internal {\n        (bool success, ) = payable(to).call{value: amount}(\"\");\n        require(success);\n    }\n\n    function getAllNFTs() external view returns (TransactionStruct[] memory) {\n        return minted;\n    }\n\n    function getNFT(uint256 id) external view returns (TransactionStruct memory) {\n        return minted[id - 1];\n    }\n\n    function getAllTransactions() external view returns (TransactionStruct[] memory) {\n        return transactions;\n    }\n}\n",
  "sourcePath": "/Users/jeffreyliu/Desktop/EthnMagic/src/contracts/EthnMagic.sol",
  "compiler": {
    "name": "solc",
    "version": "0.8.11+commit.d7f03943.Emscripten.clang"
  },
  "schemaVersion": "3.4.14",
  "updatedAt": "2023-05-30T21:03:38.287Z",
  "networkType": "ethereum",
  "devdoc": {
    "kind": "dev",
    "methods": {
      "approve(address,uint256)": {
        "details": "See {IERC721-approve}."
      },
      "balanceOf(address)": {
        "details": "See {IERC721-balanceOf}."
      },
      "getApproved(uint256)": {
        "details": "See {IERC721-getApproved}."
      },
      "isApprovedForAll(address,address)": {
        "details": "See {IERC721-isApprovedForAll}."
      },
      "name()": {
        "details": "See {IERC721Metadata-name}."
      },
      "owner()": {
        "details": "Returns the address of the current owner."
      },
      "ownerOf(uint256)": {
        "details": "See {IERC721-ownerOf}."
      },
      "renounceOwnership()": {
        "details": "Leaves the contract without owner. It will not be possible to call `onlyOwner` functions. Can only be called by the current owner. NOTE: Renouncing ownership will leave the contract without an owner, thereby disabling any functionality that is only available to the owner."
      },
      "safeTransferFrom(address,address,uint256)": {
        "details": "See {IERC721-safeTransferFrom}."
      },
      "safeTransferFrom(address,address,uint256,bytes)": {
        "details": "See {IERC721-safeTransferFrom}."
      },
      "setApprovalForAll(address,bool)": {
        "details": "See {IERC721-setApprovalForAll}."
      },
      "supportsInterface(bytes4)": {
        "details": "See {IERC165-supportsInterface}."
      },
      "symbol()": {
        "details": "See {IERC721Metadata-symbol}."
      },
      "tokenByIndex(uint256)": {
        "details": "See {IERC721Enumerable-tokenByIndex}."
      },
      "tokenOfOwnerByIndex(address,uint256)": {
        "details": "See {IERC721Enumerable-tokenOfOwnerByIndex}."
      },
      "tokenURI(uint256)": {
        "details": "See {IERC721Metadata-tokenURI}."
      },
      "totalSupply()": {
        "details": "See {IERC721Enumerable-totalSupply}."
      },
      "transferFrom(address,address,uint256)": {
        "details": "See {IERC721-transferFrom}."
      },
      "transferOwnership(address)": {
        "details": "Transfers ownership of the contract to a new account (`newOwner`). Can only be called by the current owner."
      }
    },
    "version": 1
  },
  "userdoc": {
    "kind": "user",
    "methods": {},
    "version": 1
  }
}