{
  "contractName": "EthnMagicV1",
  "abi": [
    {
      "inputs": [
        {
          "internalType": "string",
          "name": "_name",
          "type": "string"
        },
        {
          "internalType": "string",
          "name": "_symbol",
          "type": "string"
        },
        {
          "internalType": "uint256",
          "name": "_royalityFee",
          "type": "uint256"
        },
        {
          "internalType": "address",
          "name": "_artist",
          "type": "address"
        }
      ],
      "stateMutability": "nonpayable",
      "type": "constructor"
    },
    {
      "anonymous": false,
      "inputs": [
        {
          "indexed": true,
          "internalType": "address",
          "name": "owner",
          "type": "address"
        },
        {
          "indexed": true,
          "internalType": "address",
          "name": "approved",
          "type": "address"
        },
        {
          "indexed": true,
          "internalType": "uint256",
          "name": "tokenId",
          "type": "uint256"
        }
      ],
      "name": "Approval",
      "type": "event"
    },
    {
      "anonymous": false,
      "inputs": [
        {
          "indexed": true,
          "internalType": "address",
          "name": "owner",
          "type": "address"
        },
        {
          "indexed": true,
          "internalType": "address",
          "name": "operator",
          "type": "address"
        },
        {
          "indexed": false,
          "internalType": "bool",
          "name": "approved",
          "type": "bool"
        }
      ],
      "name": "ApprovalForAll",
      "type": "event"
    },
    {
      "anonymous": false,
      "inputs": [
        {
          "indexed": false,
          "internalType": "uint256",
          "name": "id",
          "type": "uint256"
        },
        {
          "indexed": false,
          "internalType": "string",
          "name": "metadataURI",
          "type": "string"
        },
        {
          "indexed": false,
          "internalType": "uint256",
          "name": "timestamp",
          "type": "uint256"
        }
      ],
      "name": "Deletion",
      "type": "event"
    },
    {
      "anonymous": false,
      "inputs": [
        {
          "indexed": true,
          "internalType": "address",
          "name": "previousOwner",
          "type": "address"
        },
        {
          "indexed": true,
          "internalType": "address",
          "name": "newOwner",
          "type": "address"
        }
      ],
      "name": "OwnershipTransferred",
      "type": "event"
    },
    {
      "anonymous": false,
      "inputs": [
        {
          "indexed": false,
          "internalType": "uint256",
          "name": "id",
          "type": "uint256"
        },
        {
          "indexed": true,
          "internalType": "address",
          "name": "owner",
          "type": "address"
        },
        {
          "indexed": false,
          "internalType": "uint256",
          "name": "price",
          "type": "uint256"
        },
        {
          "indexed": false,
          "internalType": "string",
          "name": "metadataURI",
          "type": "string"
        },
        {
          "indexed": false,
          "internalType": "uint256",
          "name": "timestamp",
          "type": "uint256"
        }
      ],
      "name": "Sale",
      "type": "event"
    },
    {
      "anonymous": false,
      "inputs": [
        {
          "indexed": true,
          "internalType": "address",
          "name": "from",
          "type": "address"
        },
        {
          "indexed": true,
          "internalType": "address",
          "name": "to",
          "type": "address"
        },
        {
          "indexed": true,
          "internalType": "uint256",
          "name": "tokenId",
          "type": "uint256"
        }
      ],
      "name": "Transfer",
      "type": "event"
    },
    {
      "inputs": [
        {
          "internalType": "address",
          "name": "to",
          "type": "address"
        },
        {
          "internalType": "uint256",
          "name": "tokenId",
          "type": "uint256"
        }
      ],
      "name": "approve",
      "outputs": [],
      "stateMutability": "nonpayable",
      "type": "function"
    },
    {
      "inputs": [],
      "name": "artist",
      "outputs": [
        {
          "internalType": "address",
          "name": "",
          "type": "address"
        }
      ],
      "stateMutability": "view",
      "type": "function",
      "constant": true
    },
    {
      "inputs": [
        {
          "internalType": "address",
          "name": "owner",
          "type": "address"
        }
      ],
      "name": "balanceOf",
      "outputs": [
        {
          "internalType": "uint256",
          "name": "",
          "type": "uint256"
        }
      ],
      "stateMutability": "view",
      "type": "function",
      "constant": true
    },
    {
      "inputs": [
        {
          "internalType": "uint256",
          "name": "tokenId",
          "type": "uint256"
        }
      ],
      "name": "getApproved",
      "outputs": [
        {
          "internalType": "address",
          "name": "",
          "type": "address"
        }
      ],
      "stateMutability": "view",
      "type": "function",
      "constant": true
    },
    {
      "inputs": [
        {
          "internalType": "uint256",
          "name": "",
          "type": "uint256"
        }
      ],
      "name": "holderOf",
      "outputs": [
        {
          "internalType": "address",
          "name": "",
          "type": "address"
        }
      ],
      "stateMutability": "view",
      "type": "function",
      "constant": true
    },
    {
      "inputs": [
        {
          "internalType": "address",
          "name": "owner",
          "type": "address"
        },
        {
          "internalType": "address",
          "name": "operator",
          "type": "address"
        }
      ],
      "name": "isApprovedForAll",
      "outputs": [
        {
          "internalType": "bool",
          "name": "",
          "type": "bool"
        }
      ],
      "stateMutability": "view",
      "type": "function",
      "constant": true
    },
    {
      "inputs": [],
      "name": "name",
      "outputs": [
        {
          "internalType": "string",
          "name": "",
          "type": "string"
        }
      ],
      "stateMutability": "view",
      "type": "function",
      "constant": true
    },
    {
      "inputs": [],
      "name": "owner",
      "outputs": [
        {
          "internalType": "address",
          "name": "",
          "type": "address"
        }
      ],
      "stateMutability": "view",
      "type": "function",
      "constant": true
    },
    {
      "inputs": [
        {
          "internalType": "uint256",
          "name": "tokenId",
          "type": "uint256"
        }
      ],
      "name": "ownerOf",
      "outputs": [
        {
          "internalType": "address",
          "name": "",
          "type": "address"
        }
      ],
      "stateMutability": "view",
      "type": "function",
      "constant": true
    },
    {
      "inputs": [],
      "name": "price",
      "outputs": [
        {
          "internalType": "uint256",
          "name": "",
          "type": "uint256"
        }
      ],
      "stateMutability": "view",
      "type": "function",
      "constant": true
    },
    {
      "inputs": [],
      "name": "renounceOwnership",
      "outputs": [],
      "stateMutability": "nonpayable",
      "type": "function"
    },
    {
      "inputs": [],
      "name": "royalityFee",
      "outputs": [
        {
          "internalType": "uint256",
          "name": "",
          "type": "uint256"
        }
      ],
      "stateMutability": "view",
      "type": "function",
      "constant": true
    },
    {
      "inputs": [
        {
          "internalType": "address",
          "name": "from",
          "type": "address"
        },
        {
          "internalType": "address",
          "name": "to",
          "type": "address"
        },
        {
          "internalType": "uint256",
          "name": "tokenId",
          "type": "uint256"
        }
      ],
      "name": "safeTransferFrom",
      "outputs": [],
      "stateMutability": "payable",
      "type": "function",
      "payable": true
    },
    {
      "inputs": [
        {
          "internalType": "address",
          "name": "from",
          "type": "address"
        },
        {
          "internalType": "address",
          "name": "to",
          "type": "address"
        },
        {
          "internalType": "uint256",
          "name": "tokenId",
          "type": "uint256"
        },
        {
          "internalType": "bytes",
          "name": "_data",
          "type": "bytes"
        }
      ],
      "name": "safeTransferFrom",
      "outputs": [],
      "stateMutability": "payable",
      "type": "function",
      "payable": true
    },
    {
      "inputs": [
        {
          "internalType": "address",
          "name": "operator",
          "type": "address"
        },
        {
          "internalType": "bool",
          "name": "approved",
          "type": "bool"
        }
      ],
      "name": "setApprovalForAll",
      "outputs": [],
      "stateMutability": "nonpayable",
      "type": "function"
    },
    {
      "inputs": [],
      "name": "supply",
      "outputs": [
        {
          "internalType": "uint256",
          "name": "",
          "type": "uint256"
        }
      ],
      "stateMutability": "view",
      "type": "function",
      "constant": true
    },
    {
      "inputs": [
        {
          "internalType": "bytes4",
          "name": "interfaceId",
          "type": "bytes4"
        }
      ],
      "name": "supportsInterface",
      "outputs": [
        {
          "internalType": "bool",
          "name": "",
          "type": "bool"
        }
      ],
      "stateMutability": "view",
      "type": "function",
      "constant": true
    },
    {
      "inputs": [],
      "name": "symbol",
      "outputs": [
        {
          "internalType": "string",
          "name": "",
          "type": "string"
        }
      ],
      "stateMutability": "view",
      "type": "function",
      "constant": true
    },
    {
      "inputs": [
        {
          "internalType": "uint256",
          "name": "index",
          "type": "uint256"
        }
      ],
      "name": "tokenByIndex",
      "outputs": [
        {
          "internalType": "uint256",
          "name": "",
          "type": "uint256"
        }
      ],
      "stateMutability": "view",
      "type": "function",
      "constant": true
    },
    {
      "inputs": [
        {
          "internalType": "address",
          "name": "owner",
          "type": "address"
        },
        {
          "internalType": "uint256",
          "name": "index",
          "type": "uint256"
        }
      ],
      "name": "tokenOfOwnerByIndex",
      "outputs": [
        {
          "internalType": "uint256",
          "name": "",
          "type": "uint256"
        }
      ],
      "stateMutability": "view",
      "type": "function",
      "constant": true
    },
    {
      "inputs": [
        {
          "internalType": "uint256",
          "name": "tokenId",
          "type": "uint256"
        }
      ],
      "name": "tokenURI",
      "outputs": [
        {
          "internalType": "string",
          "name": "",
          "type": "string"
        }
      ],
      "stateMutability": "view",
      "type": "function",
      "constant": true
    },
    {
      "inputs": [],
      "name": "totalSupply",
      "outputs": [
        {
          "internalType": "uint256",
          "name": "",
          "type": "uint256"
        }
      ],
      "stateMutability": "view",
      "type": "function",
      "constant": true
    },
    {
      "inputs": [],
      "name": "totalTx",
      "outputs": [
        {
          "internalType": "uint256",
          "name": "",
          "type": "uint256"
        }
      ],
      "stateMutability": "view",
      "type": "function",
      "constant": true
    },
    {
      "inputs": [
        {
          "internalType": "address",
          "name": "from",
          "type": "address"
        },
        {
          "internalType": "address",
          "name": "to",
          "type": "address"
        },
        {
          "internalType": "uint256",
          "name": "tokenId",
          "type": "uint256"
        }
      ],
      "name": "transferFrom",
      "outputs": [],
      "stateMutability": "payable",
      "type": "function",
      "payable": true
    },
    {
      "inputs": [
        {
          "internalType": "address",
          "name": "newOwner",
          "type": "address"
        }
      ],
      "name": "transferOwnership",
      "outputs": [],
      "stateMutability": "nonpayable",
      "type": "function"
    },
    {
      "inputs": [
        {
          "internalType": "string",
          "name": "title",
          "type": "string"
        },
        {
          "internalType": "string",
          "name": "description",
          "type": "string"
        },
        {
          "internalType": "string",
          "name": "metadataURI",
          "type": "string"
        },
        {
          "internalType": "uint256",
          "name": "price",
          "type": "uint256"
        }
      ],
      "name": "payToMint",
      "outputs": [],
      "stateMutability": "payable",
      "type": "function",
      "payable": true
    },
    {
      "inputs": [
        {
          "internalType": "uint256",
          "name": "id",
          "type": "uint256"
        }
      ],
      "name": "payToBuy",
      "outputs": [],
      "stateMutability": "payable",
      "type": "function",
      "payable": true
    },
    {
      "inputs": [
        {
          "internalType": "uint256",
          "name": "id",
          "type": "uint256"
        },
        {
          "internalType": "uint256",
          "name": "newPrice",
          "type": "uint256"
        }
      ],
      "name": "changePrice",
      "outputs": [
        {
          "internalType": "bool",
          "name": "",
          "type": "bool"
        }
      ],
      "stateMutability": "nonpayable",
      "type": "function"
    },
    {
      "inputs": [
        {
          "internalType": "uint256",
          "name": "id",
          "type": "uint256"
        }
      ],
      "name": "deleteNFT",
      "outputs": [],
      "stateMutability": "nonpayable",
      "type": "function"
    },
    {
      "inputs": [],
      "name": "getAllNFTs",
      "outputs": [
        {
          "components": [
            {
              "internalType": "uint256",
              "name": "id",
              "type": "uint256"
            },
            {
              "internalType": "address",
              "name": "owner",
              "type": "address"
            },
            {
              "internalType": "uint256",
              "name": "price",
              "type": "uint256"
            },
            {
              "internalType": "string",
              "name": "title",
              "type": "string"
            },
            {
              "internalType": "string",
              "name": "description",
              "type": "string"
            },
            {
              "internalType": "string",
              "name": "metadataURI",
              "type": "string"
            },
            {
              "internalType": "uint256",
              "name": "timestamp",
              "type": "uint256"
            }
          ],
          "internalType": "struct EthnMagicV1.TransactionStruct[]",
          "name": "",
          "type": "tuple[]"
        }
      ],
      "stateMutability": "view",
      "type": "function",
      "constant": true
    },
    {
      "inputs": [
        {
          "internalType": "uint256",
          "name": "id",
          "type": "uint256"
        }
      ],
      "name": "getNFT",
      "outputs": [
        {
          "components": [
            {
              "internalType": "uint256",
              "name": "id",
              "type": "uint256"
            },
            {
              "internalType": "address",
              "name": "owner",
              "type": "address"
            },
            {
              "internalType": "uint256",
              "name": "price",
              "type": "uint256"
            },
            {
              "internalType": "string",
              "name": "title",
              "type": "string"
            },
            {
              "internalType": "string",
              "name": "description",
              "type": "string"
            },
            {
              "internalType": "string",
              "name": "metadataURI",
              "type": "string"
            },
            {
              "internalType": "uint256",
              "name": "timestamp",
              "type": "uint256"
            }
          ],
          "internalType": "struct EthnMagicV1.TransactionStruct",
          "name": "",
          "type": "tuple"
        }
      ],
      "stateMutability": "view",
      "type": "function",
      "constant": true
    },
    {
      "inputs": [],
      "name": "getAllTransactions",
      "outputs": [
        {
          "components": [
            {
              "internalType": "uint256",
              "name": "id",
              "type": "uint256"
            },
            {
              "internalType": "address",
              "name": "owner",
              "type": "address"
            },
            {
              "internalType": "uint256",
              "name": "price",
              "type": "uint256"
            },
            {
              "internalType": "string",
              "name": "title",
              "type": "string"
            },
            {
              "internalType": "string",
              "name": "description",
              "type": "string"
            },
            {
              "internalType": "string",
              "name": "metadataURI",
              "type": "string"
            },
            {
              "internalType": "uint256",
              "name": "timestamp",
              "type": "uint256"
            }
          ],
          "internalType": "struct EthnMagicV1.TransactionStruct[]",
          "name": "",
          "type": "tuple[]"
        }
      ],
      "stateMutability": "view",
      "type": "function",
      "constant": true
    }
  ],
  "bytecode": "0x60806040526000600f556000601055662386f26fc100006011553480156200002657600080fd5b5060405162005cff38038062005cff83398181016040528101906200004c9190620004af565b8383816000908051906020019062000066929190620001c2565b5080600190805190602001906200007f929190620001c2565b505050620000a262000096620000f460201b60201c565b620000fc60201b60201c565b81600e8190555080600d60006101000a81548173ffffffffffffffffffffffffffffffffffffffff021916908373ffffffffffffffffffffffffffffffffffffffff16021790555050505050620005c4565b600033905090565b6000600a60009054906101000a900473ffffffffffffffffffffffffffffffffffffffff16905081600a60006101000a81548173ffffffffffffffffffffffffffffffffffffffff021916908373ffffffffffffffffffffffffffffffffffffffff1602179055508173ffffffffffffffffffffffffffffffffffffffff168173ffffffffffffffffffffffffffffffffffffffff167f8be0079c531659141344cd1fd0a4f28419497f9722a3daafe3b4186f6b6457e060405160405180910390a35050565b828054620001d0906200058e565b90600052602060002090601f016020900481019282620001f4576000855562000240565b82601f106200020f57805160ff191683800117855562000240565b8280016001018555821562000240579182015b828111156200023f57825182559160200191906001019062000222565b5b5090506200024f919062000253565b5090565b5b808211156200026e57600081600090555060010162000254565b5090565b6000604051905090565b600080fd5b600080fd5b600080fd5b600080fd5b6000601f19601f8301169050919050565b7f4e487b7100000000000000000000000000000000000000000000000000000000600052604160045260246000fd5b620002db8262000290565b810181811067ffffffffffffffff82111715620002fd57620002fc620002a1565b5b80604052505050565b60006200031262000272565b9050620003208282620002d0565b919050565b600067ffffffffffffffff821115620003435762000342620002a1565b5b6200034e8262000290565b9050602081019050919050565b60005b838110156200037b5780820151818401526020810190506200035e565b838111156200038b576000848401525b50505050565b6000620003a8620003a28462000325565b62000306565b905082815260208101848484011115620003c757620003c66200028b565b5b620003d48482856200035b565b509392505050565b600082601f830112620003f457620003f362000286565b5b81516200040684826020860162000391565b91505092915050565b6000819050919050565b62000424816200040f565b81146200043057600080fd5b50565b600081519050620004448162000419565b92915050565b600073ffffffffffffffffffffffffffffffffffffffff82169050919050565b600062000477826200044a565b9050919050565b62000489816200046a565b81146200049557600080fd5b50565b600081519050620004a9816200047e565b92915050565b60008060008060808587031215620004cc57620004cb6200027c565b5b600085015167ffffffffffffffff811115620004ed57620004ec62000281565b5b620004fb87828801620003dc565b945050602085015167ffffffffffffffff8111156200051f576200051e62000281565b5b6200052d87828801620003dc565b9350506040620005408782880162000433565b9250506060620005538782880162000498565b91505092959194509250565b7f4e487b7100000000000000000000000000000000000000000000000000000000600052602260045260246000fd5b60006002820490506001821680620005a757607f821691505b60208210811415620005be57620005bd6200055f565b5b50919050565b61572b80620005d46000396000f3fe6080604052600436106101e35760003560e01c8063715018a611610102578063b3de019c11610095578063e0391b0911610064578063e0391b09146106ed578063e985e9c514610718578063f2fde38b14610755578063f687ed571461077e576101e3565b8063b3de019c1461061a578063b88d4fde14610657578063c87b56dd14610673578063dbacc237146106b0576101e3565b806395d89b41116100d157806395d89b411461057f5780639ba4b017146105aa578063a035b1fe146105c6578063a22cb465146105f1576101e3565b8063715018a6146104f65780637220cf391461050d578063799c0c1e146105385780638da5cb5b14610554576101e3565b80632f745c591161017a5780634f6ccce7116101495780634f6ccce714610402578063576f7ea71461043f5780636352211e1461047c57806370a08231146104b9576101e3565b80632f745c5914610353578063326bb4ad1461039057806342842e0e146103bb57806343bc1612146103d7576101e3565b8063095ea7b3116101b6578063095ea7b3146102b857806318160ddd146102e157806323b872dd1461030c57806327506f5314610328576101e3565b806301ffc9a7146101e8578063047fc9aa1461022557806306fdde0314610250578063081812fc1461027b575b600080fd5b3480156101f457600080fd5b5061020f600480360381019061020a9190613b86565b6107a7565b60405161021c9190613bce565b60405180910390f35b34801561023157600080fd5b5061023a610821565b6040516102479190613c02565b60405180910390f35b34801561025c57600080fd5b50610265610827565b6040516102729190613cb6565b60405180910390f35b34801561028757600080fd5b506102a2600480360381019061029d9190613d04565b6108b9565b6040516102af9190613d72565b60405180910390f35b3480156102c457600080fd5b506102df60048036038101906102da9190613db9565b61093e565b005b3480156102ed57600080fd5b506102f6610a56565b6040516103039190613c02565b60405180910390f35b61032660048036038101906103219190613df9565b610a63565b005b34801561033457600080fd5b5061033d610ac3565b60405161034a9190614020565b60405180910390f35b34801561035f57600080fd5b5061037a60048036038101906103759190613db9565b610d4c565b6040516103879190613c02565b60405180910390f35b34801561039c57600080fd5b506103a5610df1565b6040516103b29190613c02565b60405180910390f35b6103d560048036038101906103d09190613df9565b610df7565b005b3480156103e357600080fd5b506103ec610e17565b6040516103f99190613d72565b60405180910390f35b34801561040e57600080fd5b5061042960048036038101906104249190613d04565b610e3d565b6040516104369190613c02565b60405180910390f35b34801561044b57600080fd5b5061046660048036038101906104619190613d04565b610eae565b60405161047391906140ec565b60405180910390f35b34801561048857600080fd5b506104a3600480360381019061049e9190613d04565b611120565b6040516104b09190613d72565b60405180910390f35b3480156104c557600080fd5b506104e060048036038101906104db919061410e565b6111d2565b6040516104ed9190613c02565b60405180910390f35b34801561050257600080fd5b5061050b61128a565b005b34801561051957600080fd5b5061052261129e565b60405161052f9190613c02565b60405180910390f35b610552600480360381019061054d9190614270565b6112a4565b005b34801561056057600080fd5b50610569611675565b6040516105769190613d72565b60405180910390f35b34801561058b57600080fd5b5061059461169f565b6040516105a19190613cb6565b60405180910390f35b6105c460048036038101906105bf9190613d04565b611731565b005b3480156105d257600080fd5b506105db611d86565b6040516105e89190613c02565b60405180910390f35b3480156105fd57600080fd5b5061061860048036038101906106139190614357565b611d8c565b005b34801561062657600080fd5b50610641600480360381019061063c9190614397565b611da2565b60405161064e9190613bce565b60405180910390f35b610671600480360381019061066c9190614478565b611ee5565b005b34801561067f57600080fd5b5061069a60048036038101906106959190613d04565b611f47565b6040516106a79190613cb6565b60405180910390f35b3480156106bc57600080fd5b506106d760048036038101906106d29190613d04565b611fee565b6040516106e49190613d72565b60405180910390f35b3480156106f957600080fd5b50610702612021565b60405161070f9190614020565b60405180910390f35b34801561072457600080fd5b5061073f600480360381019061073a91906144fb565b6122aa565b60405161074c9190613bce565b60405180910390f35b34801561076157600080fd5b5061077c6004803603810190610777919061410e565b61233e565b005b34801561078a57600080fd5b506107a560048036038101906107a09190613d04565b6123c2565b005b60007f780e9d63000000000000000000000000000000000000000000000000000000007bffffffffffffffffffffffffffffffffffffffffffffffffffffffff1916827bffffffffffffffffffffffffffffffffffffffffffffffffffffffff1916148061081a575061081982612656565b5b9050919050565b600f5481565b6060600080546108369061456a565b80601f01602080910402602001604051908101604052809291908181526020018280546108629061456a565b80156108af5780601f10610884576101008083540402835291602001916108af565b820191906000526020600020905b81548152906001019060200180831161089257829003601f168201915b5050505050905090565b60006108c482612738565b610903576040517f08c379a00000000000000000000000000000000000000000000000000000000081526004016108fa9061460e565b60405180910390fd5b6004600083815260200190815260200160002060009054906101000a900473ffffffffffffffffffffffffffffffffffffffff169050919050565b600061094982611120565b90508073ffffffffffffffffffffffffffffffffffffffff168373ffffffffffffffffffffffffffffffffffffffff1614156109ba576040517f08c379a00000000000000000000000000000000000000000000000000000000081526004016109b1906146a0565b60405180910390fd5b8073ffffffffffffffffffffffffffffffffffffffff166109d96127a4565b73ffffffffffffffffffffffffffffffffffffffff161480610a085750610a0781610a026127a4565b6122aa565b5b610a47576040517f08c379a0000000000000000000000000000000000000000000000000000000008152600401610a3e90614732565b60405180910390fd5b610a5183836127ac565b505050565b6000600880549050905090565b610a74610a6e6127a4565b82612865565b610ab3576040517f08c379a0000000000000000000000000000000000000000000000000000000008152600401610aaa906147c4565b60405180910390fd5b610abe838383612943565b505050565b60606012805480602002602001604051908101604052809291908181526020016000905b82821015610d4357838290600052602060002090600702016040518060e0016040529081600082015481526020016001820160009054906101000a900473ffffffffffffffffffffffffffffffffffffffff1673ffffffffffffffffffffffffffffffffffffffff1673ffffffffffffffffffffffffffffffffffffffff16815260200160028201548152602001600382018054610b849061456a565b80601f0160208091040260200160405190810160405280929190818152602001828054610bb09061456a565b8015610bfd5780601f10610bd257610100808354040283529160200191610bfd565b820191906000526020600020905b815481529060010190602001808311610be057829003601f168201915b50505050508152602001600482018054610c169061456a565b80601f0160208091040260200160405190810160405280929190818152602001828054610c429061456a565b8015610c8f5780601f10610c6457610100808354040283529160200191610c8f565b820191906000526020600020905b815481529060010190602001808311610c7257829003601f168201915b50505050508152602001600582018054610ca89061456a565b80601f0160208091040260200160405190810160405280929190818152602001828054610cd49061456a565b8015610d215780601f10610cf657610100808354040283529160200191610d21565b820191906000526020600020905b815481529060010190602001808311610d0457829003601f168201915b5050505050815260200160068201548152505081526020019060010190610ae7565b50505050905090565b6000610d57836111d2565b8210610d98576040517f08c379a0000000000000000000000000000000000000000000000000000000008152600401610d8f90614856565b60405180910390fd5b600660008473ffffffffffffffffffffffffffffffffffffffff1673ffffffffffffffffffffffffffffffffffffffff168152602001908152602001600020600083815260200190815260200160002054905092915050565b600e5481565b610e1283838360405180602001604052806000815250611ee5565b505050565b600d60009054906101000a900473ffffffffffffffffffffffffffffffffffffffff1681565b6000610e47610a56565b8210610e88576040517f08c379a0000000000000000000000000000000000000000000000000000000008152600401610e7f906148e8565b60405180910390fd5b60088281548110610e9c57610e9b614908565b5b90600052602060002001549050919050565b610eb66139e4565b6013600183610ec59190614966565b81548110610ed657610ed5614908565b5b90600052602060002090600702016040518060e0016040529081600082015481526020016001820160009054906101000a900473ffffffffffffffffffffffffffffffffffffffff1673ffffffffffffffffffffffffffffffffffffffff1673ffffffffffffffffffffffffffffffffffffffff16815260200160028201548152602001600382018054610f699061456a565b80601f0160208091040260200160405190810160405280929190818152602001828054610f959061456a565b8015610fe25780601f10610fb757610100808354040283529160200191610fe2565b820191906000526020600020905b815481529060010190602001808311610fc557829003601f168201915b50505050508152602001600482018054610ffb9061456a565b80601f01602080910402602001604051908101604052809291908181526020018280546110279061456a565b80156110745780601f1061104957610100808354040283529160200191611074565b820191906000526020600020905b81548152906001019060200180831161105757829003601f168201915b5050505050815260200160058201805461108d9061456a565b80601f01602080910402602001604051908101604052809291908181526020018280546110b99061456a565b80156111065780601f106110db57610100808354040283529160200191611106565b820191906000526020600020905b8154815290600101906020018083116110e957829003601f168201915b505050505081526020016006820154815250509050919050565b6000806002600084815260200190815260200160002060009054906101000a900473ffffffffffffffffffffffffffffffffffffffff169050600073ffffffffffffffffffffffffffffffffffffffff168173ffffffffffffffffffffffffffffffffffffffff1614156111c9576040517f08c379a00000000000000000000000000000000000000000000000000000000081526004016111c090614a0c565b60405180910390fd5b80915050919050565b60008073ffffffffffffffffffffffffffffffffffffffff168273ffffffffffffffffffffffffffffffffffffffff161415611243576040517f08c379a000000000000000000000000000000000000000000000000000000000815260040161123a90614a9e565b60405180910390fd5b600360008373ffffffffffffffffffffffffffffffffffffffff1673ffffffffffffffffffffffffffffffffffffffff168152602001908152602001600020549050919050565b611292612b9f565b61129c6000612c1d565b565b60105481565b803410156112e7576040517f08c379a00000000000000000000000000000000000000000000000000000000081526004016112de90614b0a565b60405180910390fd5b6000600b836040516112f99190614b66565b908152602001604051809103902060009054906101000a900460ff1660ff1614611358576040517f08c379a000000000000000000000000000000000000000000000000000000000815260040161134f90614bc9565b60405180910390fd5b611360611675565b73ffffffffffffffffffffffffffffffffffffffff163373ffffffffffffffffffffffffffffffffffffffff1614156113ce576040517f08c379a00000000000000000000000000000000000000000000000000000000081526004016113c590614c35565b60405180910390fd5b60006064600e54346113e09190614c55565b6113ea9190614cde565b9050611418600d60009054906101000a900473ffffffffffffffffffffffffffffffffffffffff1682612ce3565b611434611423611675565b823461142f9190614966565b612ce3565b600f600081548092919061144790614d0f565b919050555060136040518060e00160405280600f5481526020013373ffffffffffffffffffffffffffffffffffffffff1681526020018481526020018781526020018681526020018581526020014281525090806001815401808255809150506001900390600052602060002090600702016000909190919091506000820151816000015560208201518160010160006101000a81548173ffffffffffffffffffffffffffffffffffffffff021916908373ffffffffffffffffffffffffffffffffffffffff160217905550604082015181600201556060820151816003019080519060200190611539929190613a37565b506080820151816004019080519060200190611556929190613a37565b5060a0820151816005019080519060200190611573929190613a37565b5060c0820151816006015550503373ffffffffffffffffffffffffffffffffffffffff167fb9508407a6eccb191d8da3286f4173697cf95604e9ea192fe5ab7c862b5221f6600f543486426040516115ce9493929190614d58565b60405180910390a26115e233600f54612d5e565b6001600b846040516115f49190614b66565b908152602001604051809103902060006101000a81548160ff021916908360ff16021790555033600c6000600f54815260200190815260200160002060006101000a81548173ffffffffffffffffffffffffffffffffffffffff021916908373ffffffffffffffffffffffffffffffffffffffff1602179055505050505050565b6000600a60009054906101000a900473ffffffffffffffffffffffffffffffffffffffff16905090565b6060600180546116ae9061456a565b80601f01602080910402602001604051908101604052809291908181526020018280546116da9061456a565b80156117275780601f106116fc57610100808354040283529160200191611727565b820191906000526020600020905b81548152906001019060200180831161170a57829003601f168201915b5050505050905090565b60136001826117409190614966565b8154811061175157611750614908565b5b9060005260206000209060070201600201543410156117a5576040517f08c379a000000000000000000000000000000000000000000000000000000000815260040161179c90614df0565b60405180910390fd5b60136001826117b49190614966565b815481106117c5576117c4614908565b5b906000526020600020906007020160010160009054906101000a900473ffffffffffffffffffffffffffffffffffffffff1673ffffffffffffffffffffffffffffffffffffffff163373ffffffffffffffffffffffffffffffffffffffff161415611865576040517f08c379a000000000000000000000000000000000000000000000000000000000815260040161185c90614e5c565b60405180910390fd5b60006064600e54346118779190614c55565b6118819190614cde565b90506118af600d60009054906101000a900473ffffffffffffffffffffffffffffffffffffffff1682612ce3565b61191560136001846118c19190614966565b815481106118d2576118d1614908565b5b906000526020600020906007020160010160009054906101000a900473ffffffffffffffffffffffffffffffffffffffff1682346119109190614966565b612ce3565b6010600081548092919061192890614d0f565b919050555060126040518060e0016040528060105481526020013373ffffffffffffffffffffffffffffffffffffffff16815260200134815260200160136001866119739190614966565b8154811061198457611983614908565b5b906000526020600020906007020160030180546119a09061456a565b80601f01602080910402602001604051908101604052809291908181526020018280546119cc9061456a565b8015611a195780601f106119ee57610100808354040283529160200191611a19565b820191906000526020600020905b8154815290600101906020018083116119fc57829003601f168201915b505050505081526020016013600186611a329190614966565b81548110611a4357611a42614908565b5b90600052602060002090600702016004018054611a5f9061456a565b80601f0160208091040260200160405190810160405280929190818152602001828054611a8b9061456a565b8015611ad85780601f10611aad57610100808354040283529160200191611ad8565b820191906000526020600020905b815481529060010190602001808311611abb57829003601f168201915b505050505081526020016013600186611af19190614966565b81548110611b0257611b01614908565b5b90600052602060002090600702016005018054611b1e9061456a565b80601f0160208091040260200160405190810160405280929190818152602001828054611b4a9061456a565b8015611b975780601f10611b6c57610100808354040283529160200191611b97565b820191906000526020600020905b815481529060010190602001808311611b7a57829003601f168201915b505050505081526020014281525090806001815401808255809150506001900390600052602060002090600702016000909190919091506000820151816000015560208201518160010160006101000a81548173ffffffffffffffffffffffffffffffffffffffff021916908373ffffffffffffffffffffffffffffffffffffffff160217905550604082015181600201556060820151816003019080519060200190611c45929190613a37565b506080820151816004019080519060200190611c62929190613a37565b5060a0820151816005019080519060200190611c7f929190613a37565b5060c0820151816006015550503373ffffffffffffffffffffffffffffffffffffffff167fb9508407a6eccb191d8da3286f4173697cf95604e9ea192fe5ab7c862b5221f6601054346013600187611cd79190614966565b81548110611ce857611ce7614908565b5b906000526020600020906007020160050142604051611d0a9493929190614f11565b60405180910390a2336013600184611d229190614966565b81548110611d3357611d32614908565b5b906000526020600020906007020160010160006101000a81548173ffffffffffffffffffffffffffffffffffffffff021916908373ffffffffffffffffffffffffffffffffffffffff1602179055505050565b60115481565b611d9e611d976127a4565b8383612d7c565b5050565b6000808211611de6576040517f08c379a0000000000000000000000000000000000000000000000000000000008152600401611ddd90614df0565b60405180910390fd5b6013600184611df59190614966565b81548110611e0657611e05614908565b5b906000526020600020906007020160010160009054906101000a900473ffffffffffffffffffffffffffffffffffffffff1673ffffffffffffffffffffffffffffffffffffffff163373ffffffffffffffffffffffffffffffffffffffff1614611ea5576040517f08c379a0000000000000000000000000000000000000000000000000000000008152600401611e9c90614fa9565b60405180910390fd5b816013600185611eb59190614966565b81548110611ec657611ec5614908565b5b9060005260206000209060070201600201819055506001905092915050565b611ef6611ef06127a4565b83612865565b611f35576040517f08c379a0000000000000000000000000000000000000000000000000000000008152600401611f2c906147c4565b60405180910390fd5b611f4184848484612ee9565b50505050565b6060611f5282612738565b611f91576040517f08c379a0000000000000000000000000000000000000000000000000000000008152600401611f889061503b565b60405180910390fd5b6000611f9b612f45565b90506000815111611fbb5760405180602001604052806000815250611fe6565b80611fc584612f5c565b604051602001611fd692919061505b565b6040516020818303038152906040525b915050919050565b600c6020528060005260406000206000915054906101000a900473ffffffffffffffffffffffffffffffffffffffff1681565b60606013805480602002602001604051908101604052809291908181526020016000905b828210156122a157838290600052602060002090600702016040518060e0016040529081600082015481526020016001820160009054906101000a900473ffffffffffffffffffffffffffffffffffffffff1673ffffffffffffffffffffffffffffffffffffffff1673ffffffffffffffffffffffffffffffffffffffff168152602001600282015481526020016003820180546120e29061456a565b80601f016020809104026020016040519081016040528092919081815260200182805461210e9061456a565b801561215b5780601f106121305761010080835404028352916020019161215b565b820191906000526020600020905b81548152906001019060200180831161213e57829003601f168201915b505050505081526020016004820180546121749061456a565b80601f01602080910402602001604051908101604052809291908181526020018280546121a09061456a565b80156121ed5780601f106121c2576101008083540402835291602001916121ed565b820191906000526020600020905b8154815290600101906020018083116121d057829003601f168201915b505050505081526020016005820180546122069061456a565b80601f01602080910402602001604051908101604052809291908181526020018280546122329061456a565b801561227f5780601f106122545761010080835404028352916020019161227f565b820191906000526020600020905b81548152906001019060200180831161226257829003601f168201915b5050505050815260200160068201548152505081526020019060010190612045565b50505050905090565b6000600560008473ffffffffffffffffffffffffffffffffffffffff1673ffffffffffffffffffffffffffffffffffffffff16815260200190815260200160002060008373ffffffffffffffffffffffffffffffffffffffff1673ffffffffffffffffffffffffffffffffffffffff16815260200190815260200160002060009054906101000a900460ff16905092915050565b612346612b9f565b600073ffffffffffffffffffffffffffffffffffffffff168173ffffffffffffffffffffffffffffffffffffffff1614156123b6576040517f08c379a00000000000000000000000000000000000000000000000000000000081526004016123ad906150f1565b60405180910390fd5b6123bf81612c1d565b50565b60136001826123d19190614966565b815481106123e2576123e1614908565b5b906000526020600020906007020160010160009054906101000a900473ffffffffffffffffffffffffffffffffffffffff1673ffffffffffffffffffffffffffffffffffffffff163373ffffffffffffffffffffffffffffffffffffffff1614612481576040517f08c379a000000000000000000000000000000000000000000000000000000000815260040161247890614fa9565b60405180910390fd5b600060136001836124929190614966565b815481106124a3576124a2614908565b5b906000526020600020906007020160050180546124bf9061456a565b80601f01602080910402602001604051908101604052809291908181526020018280546124eb9061456a565b80156125385780601f1061250d57610100808354040283529160200191612538565b820191906000526020600020905b81548152906001019060200180831161251b57829003601f168201915b50505050509050601360018361254e9190614966565b8154811061255f5761255e614908565b5b90600052602060002090600702016000808201600090556001820160006101000a81549073ffffffffffffffffffffffffffffffffffffffff021916905560028201600090556003820160006125b59190613abd565b6004820160006125c59190613abd565b6005820160006125d59190613abd565b600682016000905550506000600b826040516125f19190614b66565b908152602001604051809103902060006101000a81548160ff021916908360ff1602179055507fd8f6d8cb069ef565868d00a7e0e67143a672dd3613f034c5c8f6f5a41a61daa082824260405161264a93929190615111565b60405180910390a15050565b60007f80ac58cd000000000000000000000000000000000000000000000000000000007bffffffffffffffffffffffffffffffffffffffffffffffffffffffff1916827bffffffffffffffffffffffffffffffffffffffffffffffffffffffff1916148061272157507f5b5e139f000000000000000000000000000000000000000000000000000000007bffffffffffffffffffffffffffffffffffffffffffffffffffffffff1916827bffffffffffffffffffffffffffffffffffffffffffffffffffffffff1916145b80612731575061273082613034565b5b9050919050565b60008073ffffffffffffffffffffffffffffffffffffffff166002600084815260200190815260200160002060009054906101000a900473ffffffffffffffffffffffffffffffffffffffff1673ffffffffffffffffffffffffffffffffffffffff1614159050919050565b600033905090565b816004600083815260200190815260200160002060006101000a81548173ffffffffffffffffffffffffffffffffffffffff021916908373ffffffffffffffffffffffffffffffffffffffff160217905550808273ffffffffffffffffffffffffffffffffffffffff1661281f83611120565b73ffffffffffffffffffffffffffffffffffffffff167f8c5be1e5ebec7d5bd14f71427d1e84f3dd0314c0f7b2291e5b200ac8c7c3b92560405160405180910390a45050565b600061287082612738565b6128af576040517f08c379a00000000000000000000000000000000000000000000000000000000081526004016128a6906151c1565b60405180910390fd5b60006128ba83611120565b90508073ffffffffffffffffffffffffffffffffffffffff168473ffffffffffffffffffffffffffffffffffffffff16148061292957508373ffffffffffffffffffffffffffffffffffffffff16612911846108b9565b73ffffffffffffffffffffffffffffffffffffffff16145b8061293a575061293981856122aa565b5b91505092915050565b8273ffffffffffffffffffffffffffffffffffffffff1661296382611120565b73ffffffffffffffffffffffffffffffffffffffff16146129b9576040517f08c379a00000000000000000000000000000000000000000000000000000000081526004016129b090615253565b60405180910390fd5b600073ffffffffffffffffffffffffffffffffffffffff168273ffffffffffffffffffffffffffffffffffffffff161415612a29576040517f08c379a0000000000000000000000000000000000000000000000000000000008152600401612a20906152e5565b60405180910390fd5b612a3483838361309e565b612a3f6000826127ac565b6001600360008573ffffffffffffffffffffffffffffffffffffffff1673ffffffffffffffffffffffffffffffffffffffff1681526020019081526020016000206000828254612a8f9190614966565b925050819055506001600360008473ffffffffffffffffffffffffffffffffffffffff1673ffffffffffffffffffffffffffffffffffffffff1681526020019081526020016000206000828254612ae69190615305565b92505081905550816002600083815260200190815260200160002060006101000a81548173ffffffffffffffffffffffffffffffffffffffff021916908373ffffffffffffffffffffffffffffffffffffffff160217905550808273ffffffffffffffffffffffffffffffffffffffff168473ffffffffffffffffffffffffffffffffffffffff167fddf252ad1be2c89b69c2b068fc378daa952ba7f163c4a11628f55a4df523b3ef60405160405180910390a4505050565b612ba76127a4565b73ffffffffffffffffffffffffffffffffffffffff16612bc5611675565b73ffffffffffffffffffffffffffffffffffffffff1614612c1b576040517f08c379a0000000000000000000000000000000000000000000000000000000008152600401612c12906153a7565b60405180910390fd5b565b6000600a60009054906101000a900473ffffffffffffffffffffffffffffffffffffffff16905081600a60006101000a81548173ffffffffffffffffffffffffffffffffffffffff021916908373ffffffffffffffffffffffffffffffffffffffff1602179055508173ffffffffffffffffffffffffffffffffffffffff168173ffffffffffffffffffffffffffffffffffffffff167f8be0079c531659141344cd1fd0a4f28419497f9722a3daafe3b4186f6b6457e060405160405180910390a35050565b60008273ffffffffffffffffffffffffffffffffffffffff1682604051612d09906153f8565b60006040518083038185875af1925050503d8060008114612d46576040519150601f19603f3d011682016040523d82523d6000602084013e612d4b565b606091505b5050905080612d5957600080fd5b505050565b612d788282604051806020016040528060008152506131b2565b5050565b8173ffffffffffffffffffffffffffffffffffffffff168373ffffffffffffffffffffffffffffffffffffffff161415612deb576040517f08c379a0000000000000000000000000000000000000000000000000000000008152600401612de290615459565b60405180910390fd5b80600560008573ffffffffffffffffffffffffffffffffffffffff1673ffffffffffffffffffffffffffffffffffffffff16815260200190815260200160002060008473ffffffffffffffffffffffffffffffffffffffff1673ffffffffffffffffffffffffffffffffffffffff16815260200190815260200160002060006101000a81548160ff0219169083151502179055508173ffffffffffffffffffffffffffffffffffffffff168373ffffffffffffffffffffffffffffffffffffffff167f17307eab39ab6107e8899845ad3d59bd9653f200f220920489ca2b5937696c3183604051612edc9190613bce565b60405180910390a3505050565b612ef4848484612943565b612f008484848461320d565b612f3f576040517f08c379a0000000000000000000000000000000000000000000000000000000008152600401612f36906154eb565b60405180910390fd5b50505050565b606060405180602001604052806000815250905090565b606060006001612f6b84613395565b01905060008167ffffffffffffffff811115612f8a57612f89614145565b5b6040519080825280601f01601f191660200182016040528015612fbc5781602001600182028036833780820191505090505b509050600082602001820190505b600115613029578080600190039150507f3031323334353637383961626364656600000000000000000000000000000000600a86061a8153600a858161301357613012614caf565b5b049450600085141561302457613029565b612fca565b819350505050919050565b60007f01ffc9a7000000000000000000000000000000000000000000000000000000007bffffffffffffffffffffffffffffffffffffffffffffffffffffffff1916827bffffffffffffffffffffffffffffffffffffffffffffffffffffffff1916149050919050565b6130a98383836134e8565b600073ffffffffffffffffffffffffffffffffffffffff168373ffffffffffffffffffffffffffffffffffffffff1614156130ec576130e7816134ed565b61312b565b8173ffffffffffffffffffffffffffffffffffffffff168373ffffffffffffffffffffffffffffffffffffffff161461312a576131298382613536565b5b5b600073ffffffffffffffffffffffffffffffffffffffff168273ffffffffffffffffffffffffffffffffffffffff16141561316e57613169816136a3565b6131ad565b8273ffffffffffffffffffffffffffffffffffffffff168273ffffffffffffffffffffffffffffffffffffffff16146131ac576131ab8282613774565b5b5b505050565b6131bc83836137f3565b6131c9600084848461320d565b613208576040517f08c379a00000000000000000000000000000000000000000000000000000000081526004016131ff906154eb565b60405180910390fd5b505050565b600061322e8473ffffffffffffffffffffffffffffffffffffffff166139c1565b15613388578373ffffffffffffffffffffffffffffffffffffffff1663150b7a026132576127a4565b8786866040518563ffffffff1660e01b81526004016132799493929190615560565b6020604051808303816000875af19250505080156132b557506040513d601f19601f820116820180604052508101906132b291906155c1565b60015b613338573d80600081146132e5576040519150601f19603f3d011682016040523d82523d6000602084013e6132ea565b606091505b50600081511415613330576040517f08c379a0000000000000000000000000000000000000000000000000000000008152600401613327906154eb565b60405180910390fd5b805181602001fd5b63150b7a0260e01b7bffffffffffffffffffffffffffffffffffffffffffffffffffffffff1916817bffffffffffffffffffffffffffffffffffffffffffffffffffffffff19161491505061338d565b600190505b949350505050565b600080600090507a184f03e93ff9f4daa797ed6e38ed64bf6a1f01000000000000000083106133f3577a184f03e93ff9f4daa797ed6e38ed64bf6a1f01000000000000000083816133e9576133e8614caf565b5b0492506040810190505b6d04ee2d6d415b85acef81000000008310613430576d04ee2d6d415b85acef8100000000838161342657613425614caf565b5b0492506020810190505b662386f26fc10000831061345f57662386f26fc10000838161345557613454614caf565b5b0492506010810190505b6305f5e1008310613488576305f5e100838161347e5761347d614caf565b5b0492506008810190505b61271083106134ad5761271083816134a3576134a2614caf565b5b0492506004810190505b606483106134d057606483816134c6576134c5614caf565b5b0492506002810190505b600a83106134df576001810190505b80915050919050565b505050565b6008805490506009600083815260200190815260200160002081905550600881908060018154018082558091505060019003906000526020600020016000909190919091505550565b60006001613543846111d2565b61354d9190614966565b9050600060076000848152602001908152602001600020549050818114613632576000600660008673ffffffffffffffffffffffffffffffffffffffff1673ffffffffffffffffffffffffffffffffffffffff168152602001908152602001600020600084815260200190815260200160002054905080600660008773ffffffffffffffffffffffffffffffffffffffff1673ffffffffffffffffffffffffffffffffffffffff168152602001908152602001600020600084815260200190815260200160002081905550816007600083815260200190815260200160002081905550505b6007600084815260200190815260200160002060009055600660008573ffffffffffffffffffffffffffffffffffffffff1673ffffffffffffffffffffffffffffffffffffffff16815260200190815260200160002060008381526020019081526020016000206000905550505050565b600060016008805490506136b79190614966565b90506000600960008481526020019081526020016000205490506000600883815481106136e7576136e6614908565b5b90600052602060002001549050806008838154811061370957613708614908565b5b906000526020600020018190555081600960008381526020019081526020016000208190555060096000858152602001908152602001600020600090556008805480613758576137576155ee565b5b6001900381819060005260206000200160009055905550505050565b600061377f836111d2565b905081600660008573ffffffffffffffffffffffffffffffffffffffff1673ffffffffffffffffffffffffffffffffffffffff168152602001908152602001600020600083815260200190815260200160002081905550806007600084815260200190815260200160002081905550505050565b600073ffffffffffffffffffffffffffffffffffffffff168273ffffffffffffffffffffffffffffffffffffffff161415613863576040517f08c379a000000000000000000000000000000000000000000000000000000000815260040161385a90615669565b60405180910390fd5b61386c81612738565b156138ac576040517f08c379a00000000000000000000000000000000000000000000000000000000081526004016138a3906156d5565b60405180910390fd5b6138b86000838361309e565b6001600360008473ffffffffffffffffffffffffffffffffffffffff1673ffffffffffffffffffffffffffffffffffffffff16815260200190815260200160002060008282546139089190615305565b92505081905550816002600083815260200190815260200160002060006101000a81548173ffffffffffffffffffffffffffffffffffffffff021916908373ffffffffffffffffffffffffffffffffffffffff160217905550808273ffffffffffffffffffffffffffffffffffffffff16600073ffffffffffffffffffffffffffffffffffffffff167fddf252ad1be2c89b69c2b068fc378daa952ba7f163c4a11628f55a4df523b3ef60405160405180910390a45050565b6000808273ffffffffffffffffffffffffffffffffffffffff163b119050919050565b6040518060e0016040528060008152602001600073ffffffffffffffffffffffffffffffffffffffff16815260200160008152602001606081526020016060815260200160608152602001600081525090565b828054613a439061456a565b90600052602060002090601f016020900481019282613a655760008555613aac565b82601f10613a7e57805160ff1916838001178555613aac565b82800160010185558215613aac579182015b82811115613aab578251825591602001919060010190613a90565b5b509050613ab99190613afd565b5090565b508054613ac99061456a565b6000825580601f10613adb5750613afa565b601f016020900490600052602060002090810190613af99190613afd565b5b50565b5b80821115613b16576000816000905550600101613afe565b5090565b6000604051905090565b600080fd5b600080fd5b60007fffffffff0000000000000000000000000000000000000000000000000000000082169050919050565b613b6381613b2e565b8114613b6e57600080fd5b50565b600081359050613b8081613b5a565b92915050565b600060208284031215613b9c57613b9b613b24565b5b6000613baa84828501613b71565b91505092915050565b60008115159050919050565b613bc881613bb3565b82525050565b6000602082019050613be36000830184613bbf565b92915050565b6000819050919050565b613bfc81613be9565b82525050565b6000602082019050613c176000830184613bf3565b92915050565b600081519050919050565b600082825260208201905092915050565b60005b83811015613c57578082015181840152602081019050613c3c565b83811115613c66576000848401525b50505050565b6000601f19601f8301169050919050565b6000613c8882613c1d565b613c928185613c28565b9350613ca2818560208601613c39565b613cab81613c6c565b840191505092915050565b60006020820190508181036000830152613cd08184613c7d565b905092915050565b613ce181613be9565b8114613cec57600080fd5b50565b600081359050613cfe81613cd8565b92915050565b600060208284031215613d1a57613d19613b24565b5b6000613d2884828501613cef565b91505092915050565b600073ffffffffffffffffffffffffffffffffffffffff82169050919050565b6000613d5c82613d31565b9050919050565b613d6c81613d51565b82525050565b6000602082019050613d876000830184613d63565b92915050565b613d9681613d51565b8114613da157600080fd5b50565b600081359050613db381613d8d565b92915050565b60008060408385031215613dd057613dcf613b24565b5b6000613dde85828601613da4565b9250506020613def85828601613cef565b9150509250929050565b600080600060608486031215613e1257613e11613b24565b5b6000613e2086828701613da4565b9350506020613e3186828701613da4565b9250506040613e4286828701613cef565b9150509250925092565b600081519050919050565b600082825260208201905092915050565b6000819050602082019050919050565b613e8181613be9565b82525050565b613e9081613d51565b82525050565b600082825260208201905092915050565b6000613eb282613c1d565b613ebc8185613e96565b9350613ecc818560208601613c39565b613ed581613c6c565b840191505092915050565b600060e083016000830151613ef86000860182613e78565b506020830151613f0b6020860182613e87565b506040830151613f1e6040860182613e78565b5060608301518482036060860152613f368282613ea7565b91505060808301518482036080860152613f508282613ea7565b91505060a083015184820360a0860152613f6a8282613ea7565b91505060c0830151613f7f60c0860182613e78565b508091505092915050565b6000613f968383613ee0565b905092915050565b6000602082019050919050565b6000613fb682613e4c565b613fc08185613e57565b935083602082028501613fd285613e68565b8060005b8581101561400e5784840389528151613fef8582613f8a565b9450613ffa83613f9e565b925060208a01995050600181019050613fd6565b50829750879550505050505092915050565b6000602082019050818103600083015261403a8184613fab565b905092915050565b600060e08301600083015161405a6000860182613e78565b50602083015161406d6020860182613e87565b5060408301516140806040860182613e78565b50606083015184820360608601526140988282613ea7565b915050608083015184820360808601526140b28282613ea7565b91505060a083015184820360a08601526140cc8282613ea7565b91505060c08301516140e160c0860182613e78565b508091505092915050565b600060208201905081810360008301526141068184614042565b905092915050565b60006020828403121561412457614123613b24565b5b600061413284828501613da4565b91505092915050565b600080fd5b600080fd5b7f4e487b7100000000000000000000000000000000000000000000000000000000600052604160045260246000fd5b61417d82613c6c565b810181811067ffffffffffffffff8211171561419c5761419b614145565b5b80604052505050565b60006141af613b1a565b90506141bb8282614174565b919050565b600067ffffffffffffffff8211156141db576141da614145565b5b6141e482613c6c565b9050602081019050919050565b82818337600083830152505050565b600061421361420e846141c0565b6141a5565b90508281526020810184848401111561422f5761422e614140565b5b61423a8482856141f1565b509392505050565b600082601f8301126142575761425661413b565b5b8135614267848260208601614200565b91505092915050565b6000806000806080858703121561428a57614289613b24565b5b600085013567ffffffffffffffff8111156142a8576142a7613b29565b5b6142b487828801614242565b945050602085013567ffffffffffffffff8111156142d5576142d4613b29565b5b6142e187828801614242565b935050604085013567ffffffffffffffff81111561430257614301613b29565b5b61430e87828801614242565b925050606061431f87828801613cef565b91505092959194509250565b61433481613bb3565b811461433f57600080fd5b50565b6000813590506143518161432b565b92915050565b6000806040838503121561436e5761436d613b24565b5b600061437c85828601613da4565b925050602061438d85828601614342565b9150509250929050565b600080604083850312156143ae576143ad613b24565b5b60006143bc85828601613cef565b92505060206143cd85828601613cef565b9150509250929050565b600067ffffffffffffffff8211156143f2576143f1614145565b5b6143fb82613c6c565b9050602081019050919050565b600061441b614416846143d7565b6141a5565b90508281526020810184848401111561443757614436614140565b5b6144428482856141f1565b509392505050565b600082601f83011261445f5761445e61413b565b5b813561446f848260208601614408565b91505092915050565b6000806000806080858703121561449257614491613b24565b5b60006144a087828801613da4565b94505060206144b187828801613da4565b93505060406144c287828801613cef565b925050606085013567ffffffffffffffff8111156144e3576144e2613b29565b5b6144ef8782880161444a565b91505092959194509250565b6000806040838503121561451257614511613b24565b5b600061452085828601613da4565b925050602061453185828601613da4565b9150509250929050565b7f4e487b7100000000000000000000000000000000000000000000000000000000600052602260045260246000fd5b6000600282049050600182168061458257607f821691505b602082108114156145965761459561453b565b5b50919050565b7f4552433732313a20617070726f76656420717565727920666f72206e6f6e657860008201527f697374656e7420746f6b656e0000000000000000000000000000000000000000602082015250565b60006145f8602c83613c28565b91506146038261459c565b604082019050919050565b60006020820190508181036000830152614627816145eb565b9050919050565b7f4552433732313a20617070726f76616c20746f2063757272656e74206f776e6560008201527f7200000000000000000000000000000000000000000000000000000000000000602082015250565b600061468a602183613c28565b91506146958261462e565b604082019050919050565b600060208201905081810360008301526146b98161467d565b9050919050565b7f4552433732313a20617070726f76652063616c6c6572206973206e6f74206f7760008201527f6e6572206e6f7220617070726f76656420666f7220616c6c0000000000000000602082015250565b600061471c603883613c28565b9150614727826146c0565b604082019050919050565b6000602082019050818103600083015261474b8161470f565b9050919050565b7f4552433732313a207472616e736665722063616c6c6572206973206e6f74206f60008201527f776e6572206e6f7220617070726f766564000000000000000000000000000000602082015250565b60006147ae603183613c28565b91506147b982614752565b604082019050919050565b600060208201905081810360008301526147dd816147a1565b9050919050565b7f455243373231456e756d657261626c653a206f776e657220696e646578206f7560008201527f74206f6620626f756e6473000000000000000000000000000000000000000000602082015250565b6000614840602b83613c28565b915061484b826147e4565b604082019050919050565b6000602082019050818103600083015261486f81614833565b9050919050565b7f455243373231456e756d657261626c653a20676c6f62616c20696e646578206f60008201527f7574206f6620626f756e64730000000000000000000000000000000000000000602082015250565b60006148d2602c83613c28565b91506148dd82614876565b604082019050919050565b60006020820190508181036000830152614901816148c5565b9050919050565b7f4e487b7100000000000000000000000000000000000000000000000000000000600052603260045260246000fd5b7f4e487b7100000000000000000000000000000000000000000000000000000000600052601160045260246000fd5b600061497182613be9565b915061497c83613be9565b92508282101561498f5761498e614937565b5b828203905092915050565b7f4552433732313a206f776e657220717565727920666f72206e6f6e657869737460008201527f656e7420746f6b656e0000000000000000000000000000000000000000000000602082015250565b60006149f6602983613c28565b9150614a018261499a565b604082019050919050565b60006020820190508181036000830152614a25816149e9565b9050919050565b7f4552433732313a2062616c616e636520717565727920666f7220746865207a6560008201527f726f206164647265737300000000000000000000000000000000000000000000602082015250565b6000614a88602a83613c28565b9150614a9382614a2c565b604082019050919050565b60006020820190508181036000830152614ab781614a7b565b9050919050565b7f457468657220746f6f206c6f7720666f72206d696e74696e6721000000000000600082015250565b6000614af4601a83613c28565b9150614aff82614abe565b602082019050919050565b60006020820190508181036000830152614b2381614ae7565b9050919050565b600081905092915050565b6000614b4082613c1d565b614b4a8185614b2a565b9350614b5a818560208601613c39565b80840191505092915050565b6000614b728284614b35565b915081905092915050565b7f54686973204e465420697320616c7265616479206d696e746564210000000000600082015250565b6000614bb3601b83613c28565b9150614bbe82614b7d565b602082019050919050565b60006020820190508181036000830152614be281614ba6565b9050919050565b7f53616c6573206e6f7420616c6c6f776564210000000000000000000000000000600082015250565b6000614c1f601283613c28565b9150614c2a82614be9565b602082019050919050565b60006020820190508181036000830152614c4e81614c12565b9050919050565b6000614c6082613be9565b9150614c6b83613be9565b9250817fffffffffffffffffffffffffffffffffffffffffffffffffffffffffffffffff0483118215151615614ca457614ca3614937565b5b828202905092915050565b7f4e487b7100000000000000000000000000000000000000000000000000000000600052601260045260246000fd5b6000614ce982613be9565b9150614cf483613be9565b925082614d0457614d03614caf565b5b828204905092915050565b6000614d1a82613be9565b91507fffffffffffffffffffffffffffffffffffffffffffffffffffffffffffffffff821415614d4d57614d4c614937565b5b600182019050919050565b6000608082019050614d6d6000830187613bf3565b614d7a6020830186613bf3565b8181036040830152614d8c8185613c7d565b9050614d9b6060830184613bf3565b95945050505050565b7f496e73756666696369656e742042616c616e6365000000000000000000000000600082015250565b6000614dda601483613c28565b9150614de582614da4565b602082019050919050565b60006020820190508181036000830152614e0981614dcd565b9050919050565b7f556e617574686f72697a6564205472616e73616374696f6e0000000000000000600082015250565b6000614e46601883613c28565b9150614e5182614e10565b602082019050919050565b60006020820190508181036000830152614e7581614e39565b9050919050565b60008190508160005260206000209050919050565b60008154614e9e8161456a565b614ea88186613c28565b94506001821660008114614ec35760018114614ed557614f08565b60ff1983168652602086019350614f08565b614ede85614e7c565b60005b83811015614f0057815481890152600182019150602081019050614ee1565b808801955050505b50505092915050565b6000608082019050614f266000830187613bf3565b614f336020830186613bf3565b8181036040830152614f458185614e91565b9050614f546060830184613bf3565b95945050505050565b7f556e617574686f72697a65640000000000000000000000000000000000000000600082015250565b6000614f93600c83613c28565b9150614f9e82614f5d565b602082019050919050565b60006020820190508181036000830152614fc281614f86565b9050919050565b7f4552433732314d657461646174613a2055524920717565727920666f72206e6f60008201527f6e6578697374656e7420746f6b656e0000000000000000000000000000000000602082015250565b6000615025602f83613c28565b915061503082614fc9565b604082019050919050565b6000602082019050818103600083015261505481615018565b9050919050565b60006150678285614b35565b91506150738284614b35565b91508190509392505050565b7f4f776e61626c653a206e6577206f776e657220697320746865207a65726f206160008201527f6464726573730000000000000000000000000000000000000000000000000000602082015250565b60006150db602683613c28565b91506150e68261507f565b604082019050919050565b6000602082019050818103600083015261510a816150ce565b9050919050565b60006060820190506151266000830186613bf3565b81810360208301526151388185613c7d565b90506151476040830184613bf3565b949350505050565b7f4552433732313a206f70657261746f7220717565727920666f72206e6f6e657860008201527f697374656e7420746f6b656e0000000000000000000000000000000000000000602082015250565b60006151ab602c83613c28565b91506151b68261514f565b604082019050919050565b600060208201905081810360008301526151da8161519e565b9050919050565b7f4552433732313a207472616e73666572206f6620746f6b656e2074686174206960008201527f73206e6f74206f776e0000000000000000000000000000000000000000000000602082015250565b600061523d602983613c28565b9150615248826151e1565b604082019050919050565b6000602082019050818103600083015261526c81615230565b9050919050565b7f4552433732313a207472616e7366657220746f20746865207a65726f2061646460008201527f7265737300000000000000000000000000000000000000000000000000000000602082015250565b60006152cf602483613c28565b91506152da82615273565b604082019050919050565b600060208201905081810360008301526152fe816152c2565b9050919050565b600061531082613be9565b915061531b83613be9565b9250827fffffffffffffffffffffffffffffffffffffffffffffffffffffffffffffffff038211156153505761534f614937565b5b828201905092915050565b7f4f776e61626c653a2063616c6c6572206973206e6f7420746865206f776e6572600082015250565b6000615391602083613c28565b915061539c8261535b565b602082019050919050565b600060208201905081810360008301526153c081615384565b9050919050565b600081905092915050565b50565b60006153e26000836153c7565b91506153ed826153d2565b600082019050919050565b6000615403826153d5565b9150819050919050565b7f4552433732313a20617070726f766520746f2063616c6c657200000000000000600082015250565b6000615443601983613c28565b915061544e8261540d565b602082019050919050565b6000602082019050818103600083015261547281615436565b9050919050565b7f4552433732313a207472616e7366657220746f206e6f6e20455243373231526560008201527f63656976657220696d706c656d656e7465720000000000000000000000000000602082015250565b60006154d5603283613c28565b91506154e082615479565b604082019050919050565b60006020820190508181036000830152615504816154c8565b9050919050565b600081519050919050565b600082825260208201905092915050565b60006155328261550b565b61553c8185615516565b935061554c818560208601613c39565b61555581613c6c565b840191505092915050565b60006080820190506155756000830187613d63565b6155826020830186613d63565b61558f6040830185613bf3565b81810360608301526155a18184615527565b905095945050505050565b6000815190506155bb81613b5a565b92915050565b6000602082840312156155d7576155d6613b24565b5b60006155e5848285016155ac565b91505092915050565b7f4e487b7100000000000000000000000000000000000000000000000000000000600052603160045260246000fd5b7f4552433732313a206d696e7420746f20746865207a65726f2061646472657373600082015250565b6000615653602083613c28565b915061565e8261561d565b602082019050919050565b6000602082019050818103600083015261568281615646565b9050919050565b7f4552433732313a20746f6b656e20616c7265616479206d696e74656400000000600082015250565b60006156bf601c83613c28565b91506156ca82615689565b602082019050919050565b600060208201905081810360008301526156ee816156b2565b905091905056fea264697066735822122065cdaa730390ae6876b6d1bcc0db40f45c8c050966ade610a49c12b818803e3e64736f6c634300080b0033",
  "immutableReferences": {},
  "source": "// SPDX-License-Identifier: MIT\npragma solidity >=0.7.0 <0.9.0;\n\nimport \"./ERC721.sol\";\nimport \"./ERC721Enumerable.sol\";\nimport \"@openzeppelin/contracts/access/Ownable.sol\";\n\ncontract EthnMagicV1 is ERC721Enumerable, Ownable {\n    using Strings for uint256;\n    mapping(string => uint8) existingURIs;\n    mapping(uint256 => address) public holderOf;\n\n    address public artist;\n    uint256 public royalityFee;\n    uint256 public supply = 0;\n    uint256 public totalTx = 0;\n    uint256 public price = 0.01 ether;\n\n    event Sale(\n        uint256 id,\n        address indexed owner,\n        uint256 price,\n        string metadataURI,\n        uint256 timestamp\n    );\n\n    event Deletion(\n        uint256 id,\n        string metadataURI,\n        uint256 timestamp\n    );\n\n    struct TransactionStruct {\n        uint256 id;\n        address owner;\n        uint256 price;\n        string title;\n        string description;\n        string metadataURI;\n        uint256 timestamp;\n    }\n\n    TransactionStruct[] transactions;\n    TransactionStruct[] minted;\n\n    constructor(\n        string memory _name,\n        string memory _symbol,\n        uint256 _royalityFee,\n        address _artist\n    ) ERC721(_name, _symbol) {\n        royalityFee = _royalityFee;\n        artist = _artist;\n    }\n\n    function payToMint(\n        string memory title,\n        string memory description,\n        string memory metadataURI,\n        uint256 price\n    ) external payable {\n        require(msg.value >= price, \"Ether too low for minting!\");\n        require(existingURIs[metadataURI] == 0, \"This NFT is already minted!\");\n        require(msg.sender != owner(), \"Sales not allowed!\");\n\n\n        uint256 royality = (msg.value * royalityFee) / 100;\n        payTo(artist, royality);\n        payTo(owner(), (msg.value - royality));\n\n        supply++;\n\n        minted.push(\n            TransactionStruct(\n                supply,\n                msg.sender,\n                price,\n                title,\n                description,\n                metadataURI,\n                block.timestamp\n            )\n        );\n\n        emit Sale(\n            supply,\n            msg.sender,\n            msg.value,\n            metadataURI,\n            block.timestamp\n        );\n\n        _safeMint(msg.sender, supply);\n        existingURIs[metadataURI] = 1;\n        holderOf[supply] = msg.sender;\n    }\n\n    function payToBuy(uint256 id) external payable {\n        require(msg.value >= minted[id - 1].price, \"Insufficient Balance\");\n        require(msg.sender != minted[id - 1].owner, \"Unauthorized Transaction\");\n\n        uint256 royality = (msg.value * royalityFee) / 100;\n        payTo(artist, royality);\n        payTo(minted[id - 1].owner, (msg.value - royality));\n\n        totalTx++;\n\n        transactions.push(\n            TransactionStruct(\n                totalTx,\n                msg.sender,\n                msg.value,\n                minted[id - 1].title,\n                minted[id - 1].description,\n                minted[id - 1].metadataURI,\n                block.timestamp\n            )\n        );\n\n        emit Sale(\n            totalTx,\n            msg.sender,\n            msg.value,\n            minted[id - 1].metadataURI,\n            block.timestamp\n        );\n\n        minted[id - 1].owner = msg.sender;\n    }\n\n    function changePrice(uint256 id, uint256 newPrice) external returns (bool) {\n        require(newPrice > 0 ether, \"Insufficient Balance\");\n        require(msg.sender == minted[id - 1].owner, \"Unauthorized\");\n\n        minted[id - 1].price = newPrice;\n        return true;\n    }\n\n    function deleteNFT(uint256 id) external {\n        require(msg.sender == minted[id - 1].owner, \"Unauthorized\");\n        string memory metadataURI = minted[id - 1].metadataURI;\n\n        delete minted[id - 1];\n        existingURIs[metadataURI] = 0;\n\n        emit Deletion(id, metadataURI, block.timestamp);\n    }\n\n\n\n    function payTo(address to, uint256 amount) internal {\n        (bool success, ) = payable(to).call{value: amount}(\"\");\n        require(success);\n    }\n\n    function getAllNFTs() external view returns (TransactionStruct[] memory) {\n        return minted;\n    }\n\n    function getNFT(uint256 id) external view returns (TransactionStruct memory) {\n        return minted[id - 1];\n    }\n\n    function getAllTransactions() external view returns (TransactionStruct[] memory) {\n        return transactions;\n    }\n}\n",
  "sourcePath": "/Users/jeffreyliu/Desktop/EthnMagic/src/contracts/EthnMagicV1.sol",
  "compiler": {
    "name": "solc",
    "version": "0.8.11+commit.d7f03943.Emscripten.clang"
  },
  "schemaVersion": "3.4.14",
  "updatedAt": "2023-05-31T21:29:04.949Z",
  "networkType": "ethereum",
  "devdoc": {
    "kind": "dev",
    "methods": {
      "approve(address,uint256)": {
        "details": "See {IERC721-approve}."
      },
      "balanceOf(address)": {
        "details": "See {IERC721-balanceOf}."
      },
      "getApproved(uint256)": {
        "details": "See {IERC721-getApproved}."
      },
      "isApprovedForAll(address,address)": {
        "details": "See {IERC721-isApprovedForAll}."
      },
      "name()": {
        "details": "See {IERC721Metadata-name}."
      },
      "owner()": {
        "details": "Returns the address of the current owner."
      },
      "ownerOf(uint256)": {
        "details": "See {IERC721-ownerOf}."
      },
      "renounceOwnership()": {
        "details": "Leaves the contract without owner. It will not be possible to call `onlyOwner` functions. Can only be called by the current owner. NOTE: Renouncing ownership will leave the contract without an owner, thereby disabling any functionality that is only available to the owner."
      },
      "safeTransferFrom(address,address,uint256)": {
        "details": "See {IERC721-safeTransferFrom}."
      },
      "safeTransferFrom(address,address,uint256,bytes)": {
        "details": "See {IERC721-safeTransferFrom}."
      },
      "setApprovalForAll(address,bool)": {
        "details": "See {IERC721-setApprovalForAll}."
      },
      "supportsInterface(bytes4)": {
        "details": "See {IERC165-supportsInterface}."
      },
      "symbol()": {
        "details": "See {IERC721Metadata-symbol}."
      },
      "tokenByIndex(uint256)": {
        "details": "See {IERC721Enumerable-tokenByIndex}."
      },
      "tokenOfOwnerByIndex(address,uint256)": {
        "details": "See {IERC721Enumerable-tokenOfOwnerByIndex}."
      },
      "tokenURI(uint256)": {
        "details": "See {IERC721Metadata-tokenURI}."
      },
      "totalSupply()": {
        "details": "See {IERC721Enumerable-totalSupply}."
      },
      "transferFrom(address,address,uint256)": {
        "details": "See {IERC721-transferFrom}."
      },
      "transferOwnership(address)": {
        "details": "Transfers ownership of the contract to a new account (`newOwner`). Can only be called by the current owner."
      }
    },
    "version": 1
  },
  "userdoc": {
    "kind": "user",
    "methods": {},
    "version": 1
  }
}